{
  "address": "0xe94Ae4C4eD8938B0678c7B518783b5533dd99c29",
  "abi": [
    {
      "inputs": [
        {
          "internalType": "address",
          "name": "_intefaceAddress",
          "type": "address"
        }
      ],
      "stateMutability": "nonpayable",
      "type": "constructor"
    },
    {
      "anonymous": false,
      "inputs": [
        {
          "indexed": true,
          "internalType": "address",
          "name": "Requester",
          "type": "address"
        },
        {
          "indexed": false,
          "internalType": "uint256",
          "name": "FLRSent",
          "type": "uint256"
        },
        {
          "indexed": false,
          "internalType": "uint256",
          "name": "VXTAmount",
          "type": "uint256"
        }
      ],
      "name": "BuyVXTEvent",
      "type": "event"
    },
    {
      "inputs": [],
      "name": "BuyVXT",
      "outputs": [],
      "stateMutability": "payable",
      "type": "function"
    },
    {
      "inputs": [],
      "name": "CheckTokenBalance",
      "outputs": [
        {
          "internalType": "uint256",
          "name": "",
          "type": "uint256"
        }
      ],
      "stateMutability": "view",
      "type": "function"
    },
    {
      "inputs": [],
      "name": "ContractOwner",
      "outputs": [
        {
          "internalType": "address",
          "name": "",
          "type": "address"
        }
      ],
      "stateMutability": "view",
      "type": "function"
    },
    {
      "inputs": [],
      "name": "GetVXTtoFLRPrice",
      "outputs": [
        {
          "internalType": "uint256",
          "name": "",
          "type": "uint256"
        }
      ],
      "stateMutability": "view",
      "type": "function"
    },
    {
      "inputs": [],
      "name": "VXPriceRequested",
      "outputs": [
        {
          "internalType": "uint256",
          "name": "",
          "type": "uint256"
        }
      ],
      "stateMutability": "view",
      "type": "function"
    },
    {
      "inputs": [
        {
          "internalType": "uint256",
          "name": "_flrPrice",
          "type": "uint256"
        }
      ],
      "name": "addVXTPricingFLR",
      "outputs": [],
      "stateMutability": "nonpayable",
      "type": "function"
    },
    {
      "inputs": [
        {
          "internalType": "address",
          "name": "",
          "type": "address"
        }
      ],
      "name": "allowances",
      "outputs": [
        {
          "internalType": "uint256",
          "name": "",
          "type": "uint256"
        }
      ],
      "stateMutability": "view",
      "type": "function"
    },
    {
      "inputs": [
        {
          "internalType": "uint256",
          "name": "amount",
          "type": "uint256"
        }
      ],
      "name": "approveDeX",
      "outputs": [],
      "stateMutability": "nonpayable",
      "type": "function"
    },
    {
      "inputs": [
        {
          "internalType": "uint256",
          "name": "ETHAmount",
          "type": "uint256"
        }
      ],
      "name": "calculateReqPricesFLR",
      "outputs": [
        {
          "internalType": "uint256",
          "name": "FLRAmount",
          "type": "uint256"
        },
        {
          "internalType": "uint256",
          "name": "VXTAmount",
          "type": "uint256"
        }
      ],
      "stateMutability": "view",
      "type": "function"
    },
    {
      "inputs": [
        {
          "internalType": "uint256",
          "name": "_FLRAmount",
          "type": "uint256"
        }
      ],
      "name": "checkFLR",
      "outputs": [
        {
          "internalType": "uint256",
          "name": "",
          "type": "uint256"
        }
      ],
      "stateMutability": "pure",
      "type": "function"
    },
    {
      "inputs": [
        {
          "internalType": "uint256",
          "name": "_VXTAmount",
          "type": "uint256"
        }
      ],
      "name": "convertToVXT",
      "outputs": [
        {
          "internalType": "uint256",
          "name": "",
          "type": "uint256"
        }
      ],
      "stateMutability": "pure",
      "type": "function"
    },
    {
      "inputs": [],
      "name": "vxtInterface",
      "outputs": [
        {
          "internalType": "contract VotreXTXInterface",
          "name": "",
          "type": "address"
        }
      ],
      "stateMutability": "view",
      "type": "function"
    },
    {
      "inputs": [],
      "name": "withdrawBalance",
      "outputs": [],
      "stateMutability": "nonpayable",
      "type": "function"
    },
    {
      "inputs": [],
      "name": "withdrawToken",
      "outputs": [],
      "stateMutability": "nonpayable",
      "type": "function"
    },
    {
      "stateMutability": "payable",
      "type": "receive"
    }
  ],
  "transactionHash": "0x092ad8ffe0262d976607da70f0bdeeff812406e76d2e559c90379620e12709fb",
  "args": [
    "0x5A676999715177E69Ce8CEdE05686C3e98f3E9c8"
  ],
  "numDeployments": 1,
  "solcInputHash": "32d5f4fbe2a94e9ce3f1eae98c922726",
  "bytecode": "0x60c0346100b057601f610a5938819003918201601f19168301916001600160401b038311848410176100b5578084926020946040528339810103126100b057516001600160a01b038116908190036100b0576080523360a05260405161098d90816100cc823960805181818161010d0152818161033101528181610605015281816106c80152610844015260a05181818160e40152818161030001528181610430015281816104dc01526105c50152f35b600080fd5b634e487b7160e01b600052604160045260246000fdfe608060409080825260049182361015610023575b505050361561002157600080fd5b005b600091823560e01c9081630d4137ad14610830575080630e6ca2661461067e5780631a80c09a146105a25780631c5fc9911461024d578063284ceef7146105455780632b603c711461050b5780635a63fbc9146104c85780635fd8c7101461041c5780636d779b04146102db5780637707834a146102bd578063a43260ca14610274578063aec4d1cb1461024d578063c39e60ef146102315763ca628c7803610013573461022d578160031936011261022d576001600160a01b0361010b337f00000000000000000000000000000000000000000000000000000000000000008316146108bf565b7f00000000000000000000000000000000000000000000000000000000000000001690805193632fa8a91360e11b85523081860152602085602481865afa9485156102235784956101ea575b5084156101b8578394833b156101b457604485928385519687948593630624515160e31b8552339085015260248401525af19081156101ab57506101985750f35b6101a190610873565b6101a85780f35b80fd5b513d84823e3d90fd5b8480fd5b6020606492519162461bcd60e51b8352820152600d60248201526c139bc8151bdad95b881b19599d609a1b6044820152fd5b9094506020813d60201161021b575b816102066020938361089d565b8101031261021657519338610157565b600080fd5b3d91506101f9565b82513d86823e3d90fd5b5080fd5b503461022d578160031936011261022d57602091549051908152f35b5090346101a85760203660031901126101a8575061026d60209235610904565b9051908152f35b82843461022d57602036600319011261022d57670de0b6b3a76400008135818102929181159184041417156102aa575060015580f35b634e487b7160e01b835260119052602482fd5b503461022d578160031936011261022d576020906001549051908152f35b50829034610418576020366003190112610418578135916001600160a01b03610327337f00000000000000000000000000000000000000000000000000000000000000008316146108bf565b33156103df5784907f000000000000000000000000000000000000000000000000000000000000000016803b1561022d578180916024865180948193631b5de6c160e21b83528a898401525af180156103d5576103bd575b5050670de0b6b3a7640000928381029381850414901517156103aa5750308352600260205282205580f35b634e487b7160e01b845260119052602483fd5b6103c690610873565b6103d157838561037f565b8380fd5b84513d84823e3d90fd5b506020606492519162461bcd60e51b83528201526013602482015272111956081059191c995cdcc81b9bdd081cd95d606a1b6044820152fd5b8280fd5b5082346104185782600319360112610418577f00000000000000000000000000000000000000000000000000000000000000006001600160a01b0316906104643383146108bf565b471561049757508280808093479082821561048e575bf115610484575080f35b51903d90823e3d90fd5b506108fc61047a565b606490602084519162461bcd60e51b8352820152600b60248201526a139bc8119314881319599d60aa1b6044820152fd5b503461022d578160031936011261022d57517f00000000000000000000000000000000000000000000000000000000000000006001600160a01b03168152602090f35b50823461041857602036600319011261041857356001600160a01b0381169081900361041857828291602094526002845220549051908152f35b509190346101a85760203660031901126101a857670de0b6b3a764000082358181029391811591850414171561058f57505061058360015482610937565b82519182526020820152f35b634e487b7160e01b825260119052602490fd5b503461022d578160031936011261022d576001600160a01b03926020906105ec337f00000000000000000000000000000000000000000000000000000000000000008716146108bf565b6024835180968193632fa8a91360e11b835230908301527f0000000000000000000000000000000000000000000000000000000000000000165afa918215610673579161063e575b6020925051908152f35b90506020823d60201161066b575b816106596020938361089d565b81010312610216576020915190610634565b3d915061064c565b9051903d90823e3d90fd5b5082908260031936011261041857670de0b6b3a764000091823402923415903485041481171561081d576106b56001548095610937565b9360011c3411156107d0576107985783907f00000000000000000000000000000000000000000000000000000000000000006001600160a01b0316803b15610418576044839285519485938492630624515160e31b845233908401528860248401525af1801561022357610765575b507f98b2415025a47ceaf14fb03663a7aa128fd3516166ac337255b49be5e49c84d0903384526002602052828185205580519234845260208401523392a280f35b926107917f98b2415025a47ceaf14fb03663a7aa128fd3516166ac337255b49be5e49c84d09294610873565b9290610724565b6020606492519162461bcd60e51b83528201526013602482015272045746865722076616c75652063616e2774203606c1b6044820152fd5b506020608492519162461bcd60e51b8352820152602160248201527f4e6f742073656e64696e67206174206d696e696d756d207265716972656d656e6044820152601d60fa1b6064820152fd5b634e487b7160e01b855260118252602485fd5b83903461022d578160031936011261022d577f00000000000000000000000000000000000000000000000000000000000000006001600160a01b03168152602090f35b67ffffffffffffffff811161088757604052565b634e487b7160e01b600052604160045260246000fd5b90601f8019910116810190811067ffffffffffffffff82111761088757604052565b156108c657565b60405162461bcd60e51b815260206004820152601660248201527521b0b63632b91034b9903737ba10309039ba30b5b2b960511b6044820152606490fd5b670de0b6b3a7640000908181029181830414901517156109215790565b634e487b7160e01b600052601160045260246000fd5b8115610941570490565b634e487b7160e01b600052601260045260246000fdfea26469706673582212201ec666e2a78a353e2c04755e16919889e44d0080f202e24f9c8c3ac2e50b259264736f6c63430008180033",
  "devdoc": {
    "kind": "dev",
    "methods": {},
    "version": 1
  },
  "userdoc": {
    "kind": "user",
    "methods": {},
    "version": 1
  },
  "storageLayout": {
    "storage": [
      {
        "astId": 7715,
        "contract": "contracts/VotreXDex.sol:VotreXDex",
        "label": "VXPriceRequested",
        "offset": 0,
        "slot": "0",
        "type": "t_uint256"
      },
      {
        "astId": 7717,
        "contract": "contracts/VotreXDex.sol:VotreXDex",
        "label": "FLRPricePoint",
        "offset": 0,
        "slot": "1",
        "type": "t_uint256"
      },
      {
        "astId": 7721,
        "contract": "contracts/VotreXDex.sol:VotreXDex",
        "label": "allowances",
        "offset": 0,
        "slot": "2",
        "type": "t_mapping(t_address,t_uint256)"
      }
    ],
    "types": {
      "t_address": {
        "encoding": "inplace",
        "label": "address",
        "numberOfBytes": "20"
      },
      "t_mapping(t_address,t_uint256)": {
        "encoding": "mapping",
        "key": "t_address",
        "label": "mapping(address => uint256)",
        "numberOfBytes": "32",
        "value": "t_uint256"
      },
      "t_uint256": {
        "encoding": "inplace",
        "label": "uint256",
        "numberOfBytes": "32"
      }
    }
  }
}