{
  "address": "0xE4D9b841A2Cd0db17461a8F8c3fEE640cD283f48",
  "abi": [
    {
      "inputs": [
        {
          "internalType": "address",
          "name": "_TXInterfaceAddress",
          "type": "address"
        }
      ],
      "stateMutability": "nonpayable",
      "type": "constructor"
    },
    {
      "inputs": [],
      "name": "CheckTokenBalance",
      "outputs": [
        {
          "internalType": "uint256",
          "name": "",
          "type": "uint256"
        }
      ],
      "stateMutability": "view",
      "type": "function"
    },
    {
      "inputs": [],
      "name": "CheckTokenETHBalance",
      "outputs": [
        {
          "internalType": "uint256",
          "name": "",
          "type": "uint256"
        }
      ],
      "stateMutability": "view",
      "type": "function"
    },
    {
      "inputs": [],
      "name": "VotreXOwnerName",
      "outputs": [
        {
          "internalType": "bytes32",
          "name": "",
          "type": "bytes32"
        }
      ],
      "stateMutability": "view",
      "type": "function"
    },
    {
      "inputs": [
        {
          "internalType": "string",
          "name": "_userElectionID",
          "type": "string"
        },
        {
          "internalType": "string",
          "name": "_candidateName",
          "type": "string"
        }
      ],
      "name": "addCandidateDetail",
      "outputs": [],
      "stateMutability": "nonpayable",
      "type": "function"
    },
    {
      "inputs": [
        {
          "internalType": "address",
          "name": "",
          "type": "address"
        }
      ],
      "name": "admin",
      "outputs": [
        {
          "internalType": "bool",
          "name": "isRegistered",
          "type": "bool"
        },
        {
          "internalType": "uint8",
          "name": "adminOrgCount",
          "type": "uint8"
        },
        {
          "internalType": "bytes10",
          "name": "AdminVoterIDOrg1",
          "type": "bytes10"
        },
        {
          "internalType": "bytes10",
          "name": "AdminVoterIDOrg2",
          "type": "bytes10"
        },
        {
          "internalType": "address",
          "name": "electionAdminAddress",
          "type": "address"
        },
        {
          "internalType": "uint256",
          "name": "nextOrgCreationBlock",
          "type": "uint256"
        },
        {
          "internalType": "bytes32",
          "name": "adminName",
          "type": "bytes32"
        },
        {
          "internalType": "string",
          "name": "RegisteredOrgID1",
          "type": "string"
        },
        {
          "internalType": "string",
          "name": "RegisteredOrgID2",
          "type": "string"
        }
      ],
      "stateMutability": "view",
      "type": "function"
    },
    {
      "inputs": [
        {
          "internalType": "string",
          "name": "_YourName",
          "type": "string"
        }
      ],
      "name": "buyContract",
      "outputs": [],
      "stateMutability": "payable",
      "type": "function"
    },
    {
      "inputs": [],
      "name": "changeSystemState",
      "outputs": [],
      "stateMutability": "nonpayable",
      "type": "function"
    },
    {
      "inputs": [
        {
          "internalType": "string",
          "name": "_orgID",
          "type": "string"
        },
        {
          "internalType": "string",
          "name": "_userElectionID",
          "type": "string"
        },
        {
          "internalType": "string",
          "name": "_electionName",
          "type": "string"
        },
        {
          "internalType": "uint8",
          "name": "_candidateCount",
          "type": "uint8"
        }
      ],
      "name": "createElection",
      "outputs": [],
      "stateMutability": "nonpayable",
      "type": "function"
    },
    {
      "inputs": [
        {
          "internalType": "bytes32",
          "name": "",
          "type": "bytes32"
        }
      ],
      "name": "electionInfo",
      "outputs": [
        {
          "internalType": "enum VotreXSystemA1.ElectionStatus",
          "name": "status",
          "type": "uint8"
        },
        {
          "internalType": "uint8",
          "name": "candidateList",
          "type": "uint8"
        },
        {
          "internalType": "bool",
          "name": "isFinished",
          "type": "bool"
        },
        {
          "internalType": "bytes32",
          "name": "electionID",
          "type": "bytes32"
        },
        {
          "internalType": "bytes32",
          "name": "electionName",
          "type": "bytes32"
        },
        {
          "internalType": "uint256",
          "name": "startTime",
          "type": "uint256"
        },
        {
          "internalType": "uint256",
          "name": "endTime",
          "type": "uint256"
        },
        {
          "internalType": "string",
          "name": "orgID",
          "type": "string"
        },
        {
          "internalType": "uint256",
          "name": "totalParticipants",
          "type": "uint256"
        }
      ],
      "stateMutability": "view",
      "type": "function"
    },
    {
      "inputs": [
        {
          "internalType": "string",
          "name": "",
          "type": "string"
        }
      ],
      "name": "electionResults",
      "outputs": [
        {
          "internalType": "bool",
          "name": "isPruned",
          "type": "bool"
        },
        {
          "internalType": "address",
          "name": "adminAddress",
          "type": "address"
        },
        {
          "internalType": "uint256",
          "name": "startTime",
          "type": "uint256"
        },
        {
          "internalType": "uint256",
          "name": "endTime",
          "type": "uint256"
        },
        {
          "internalType": "uint256",
          "name": "totalVoter",
          "type": "uint256"
        },
        {
          "internalType": "bytes32",
          "name": "electionID",
          "type": "bytes32"
        },
        {
          "internalType": "bytes32",
          "name": "electionName",
          "type": "bytes32"
        },
        {
          "internalType": "bytes32",
          "name": "digitalSignature",
          "type": "bytes32"
        },
        {
          "internalType": "string",
          "name": "registeredOrganization",
          "type": "string"
        },
        {
          "internalType": "string",
          "name": "electionWinner",
          "type": "string"
        },
        {
          "internalType": "string",
          "name": "signedBy",
          "type": "string"
        }
      ],
      "stateMutability": "view",
      "type": "function"
    },
    {
      "inputs": [
        {
          "internalType": "string",
          "name": "_userElectionID",
          "type": "string"
        },
        {
          "internalType": "bytes32",
          "name": "_dataHash",
          "type": "bytes32"
        }
      ],
      "name": "finishElection",
      "outputs": [],
      "stateMutability": "nonpayable",
      "type": "function"
    },
    {
      "inputs": [
        {
          "internalType": "string",
          "name": "_electionID",
          "type": "string"
        }
      ],
      "name": "getCandidateResult",
      "outputs": [
        {
          "internalType": "uint8[]",
          "name": "candidateID",
          "type": "uint8[]"
        },
        {
          "internalType": "string[]",
          "name": "candidateName",
          "type": "string[]"
        },
        {
          "internalType": "uint256[]",
          "name": "candidateVoteCount",
          "type": "uint256[]"
        }
      ],
      "stateMutability": "view",
      "type": "function"
    },
    {
      "inputs": [
        {
          "internalType": "string",
          "name": "orgID",
          "type": "string"
        }
      ],
      "name": "getElectionListInOrg",
      "outputs": [
        {
          "internalType": "bytes32[]",
          "name": "",
          "type": "bytes32[]"
        },
        {
          "internalType": "bytes32[]",
          "name": "",
          "type": "bytes32[]"
        },
        {
          "internalType": "enum VotreXSystemA1.ElectionStatus[]",
          "name": "",
          "type": "uint8[]"
        }
      ],
      "stateMutability": "view",
      "type": "function"
    },
    {
      "inputs": [
        {
          "internalType": "string",
          "name": "_orgID",
          "type": "string"
        }
      ],
      "name": "getOrgIDHash",
      "outputs": [
        {
          "internalType": "bytes32",
          "name": "",
          "type": "bytes32"
        }
      ],
      "stateMutability": "pure",
      "type": "function"
    },
    {
      "inputs": [],
      "name": "getOwnerAddress",
      "outputs": [
        {
          "internalType": "address",
          "name": "",
          "type": "address"
        }
      ],
      "stateMutability": "view",
      "type": "function"
    },
    {
      "inputs": [],
      "name": "getOwnerName",
      "outputs": [
        {
          "internalType": "bytes32",
          "name": "",
          "type": "bytes32"
        }
      ],
      "stateMutability": "view",
      "type": "function"
    },
    {
      "inputs": [],
      "name": "getRegistrationFee",
      "outputs": [
        {
          "internalType": "uint256",
          "name": "",
          "type": "uint256"
        }
      ],
      "stateMutability": "view",
      "type": "function"
    },
    {
      "inputs": [],
      "name": "getTotalOrganization",
      "outputs": [
        {
          "internalType": "uint256",
          "name": "",
          "type": "uint256"
        }
      ],
      "stateMutability": "view",
      "type": "function"
    },
    {
      "inputs": [],
      "name": "getTotalUser",
      "outputs": [
        {
          "internalType": "uint256",
          "name": "",
          "type": "uint256"
        }
      ],
      "stateMutability": "view",
      "type": "function"
    },
    {
      "inputs": [],
      "name": "getUserInfo",
      "outputs": [
        {
          "internalType": "bool",
          "name": "isRegistered",
          "type": "bool"
        },
        {
          "internalType": "bool",
          "name": "isAdmin",
          "type": "bool"
        },
        {
          "internalType": "address",
          "name": "userAddress",
          "type": "address"
        },
        {
          "internalType": "string",
          "name": "userName",
          "type": "string"
        },
        {
          "internalType": "string[]",
          "name": "registeredOrgList",
          "type": "string[]"
        },
        {
          "internalType": "string[]",
          "name": "voterIDList",
          "type": "string[]"
        },
        {
          "internalType": "string[]",
          "name": "participatedElectionEvents",
          "type": "string[]"
        }
      ],
      "stateMutability": "view",
      "type": "function"
    },
    {
      "inputs": [
        {
          "internalType": "string",
          "name": "_userElectionID",
          "type": "string"
        }
      ],
      "name": "getelectionInfo",
      "outputs": [
        {
          "internalType": "bytes32",
          "name": "electionID",
          "type": "bytes32"
        },
        {
          "internalType": "string",
          "name": "electionName",
          "type": "string"
        },
        {
          "internalType": "uint256",
          "name": "totalCandidates",
          "type": "uint256"
        },
        {
          "internalType": "uint8[]",
          "name": "candidateIDs",
          "type": "uint8[]"
        },
        {
          "internalType": "string[]",
          "name": "candidateNames",
          "type": "string[]"
        },
        {
          "internalType": "uint256[]",
          "name": "voteCounts",
          "type": "uint256[]"
        },
        {
          "internalType": "uint256",
          "name": "totalParticipants",
          "type": "uint256"
        },
        {
          "internalType": "enum VotreXSystemA1.ElectionStatus",
          "name": "statusElection",
          "type": "uint8"
        }
      ],
      "stateMutability": "view",
      "type": "function"
    },
    {
      "inputs": [],
      "name": "isVotreXActivated",
      "outputs": [
        {
          "internalType": "bool",
          "name": "",
          "type": "bool"
        }
      ],
      "stateMutability": "view",
      "type": "function"
    },
    {
      "inputs": [
        {
          "internalType": "string",
          "name": "",
          "type": "string"
        }
      ],
      "name": "organizationData",
      "outputs": [
        {
          "internalType": "enum VotreXSystemA1.OrganizationType",
          "name": "orgType",
          "type": "uint8"
        },
        {
          "internalType": "address",
          "name": "electionAdminAddresses",
          "type": "address"
        },
        {
          "internalType": "uint256",
          "name": "onPreparationElectionCounter",
          "type": "uint256"
        },
        {
          "internalType": "uint256",
          "name": "activeElectionCounter",
          "type": "uint256"
        },
        {
          "internalType": "uint256",
          "name": "archivedElectionCounter",
          "type": "uint256"
        },
        {
          "internalType": "uint256",
          "name": "totalMembers",
          "type": "uint256"
        },
        {
          "internalType": "bytes32",
          "name": "orgName",
          "type": "bytes32"
        },
        {
          "internalType": "string",
          "name": "orgID",
          "type": "string"
        }
      ],
      "stateMutability": "view",
      "type": "function"
    },
    {
      "inputs": [
        {
          "internalType": "string",
          "name": "_orgName",
          "type": "string"
        },
        {
          "internalType": "string",
          "name": "_orgID",
          "type": "string"
        },
        {
          "internalType": "string",
          "name": "_adminName",
          "type": "string"
        },
        {
          "internalType": "enum VotreXSystemA1.OrganizationType",
          "name": "_orgType",
          "type": "uint8"
        }
      ],
      "name": "registerOrganization",
      "outputs": [],
      "stateMutability": "payable",
      "type": "function"
    },
    {
      "inputs": [
        {
          "internalType": "string",
          "name": "_voterName",
          "type": "string"
        },
        {
          "internalType": "string",
          "name": "_orgID",
          "type": "string"
        },
        {
          "internalType": "bytes32",
          "name": "uniqueVoterID",
          "type": "bytes32"
        }
      ],
      "name": "registerVoter",
      "outputs": [],
      "stateMutability": "payable",
      "type": "function"
    },
    {
      "inputs": [
        {
          "internalType": "uint256",
          "name": "_PriceinEther",
          "type": "uint256"
        }
      ],
      "name": "setOrgPriceFee",
      "outputs": [],
      "stateMutability": "nonpayable",
      "type": "function"
    },
    {
      "inputs": [
        {
          "internalType": "string",
          "name": "_userElectionID",
          "type": "string"
        }
      ],
      "name": "startElection",
      "outputs": [],
      "stateMutability": "nonpayable",
      "type": "function"
    },
    {
      "inputs": [
        {
          "internalType": "string",
          "name": "_userElectionID",
          "type": "string"
        },
        {
          "internalType": "uint8",
          "name": "candidateID",
          "type": "uint8"
        },
        {
          "internalType": "uint256",
          "name": "VotesAmount",
          "type": "uint256"
        }
      ],
      "name": "vote",
      "outputs": [],
      "stateMutability": "nonpayable",
      "type": "function"
    },
    {
      "inputs": [
        {
          "internalType": "address",
          "name": "",
          "type": "address"
        }
      ],
      "name": "voters",
      "outputs": [
        {
          "internalType": "bool",
          "name": "isRegistered",
          "type": "bool"
        },
        {
          "internalType": "address",
          "name": "VoterAddress",
          "type": "address"
        },
        {
          "internalType": "bytes16",
          "name": "VoterIDOrg1",
          "type": "bytes16"
        },
        {
          "internalType": "bytes16",
          "name": "VoterIDOrg2",
          "type": "bytes16"
        },
        {
          "internalType": "string",
          "name": "VoterName",
          "type": "string"
        },
        {
          "internalType": "string",
          "name": "RegisteredOrgID1",
          "type": "string"
        },
        {
          "internalType": "string",
          "name": "RegisteredOrgID2",
          "type": "string"
        }
      ],
      "stateMutability": "view",
      "type": "function"
    },
    {
      "inputs": [],
      "name": "withdrawFees",
      "outputs": [],
      "stateMutability": "nonpayable",
      "type": "function"
    },
    {
      "stateMutability": "payable",
      "type": "receive"
    }
  ],
  "transactionHash": "0xa6b0b98be6ca28fc5b8b2ef31c91bb38e11959d9c66ada07e87aa9c7bbb1de83",
  "args": [
    "0x5A676999715177E69Ce8CEdE05686C3e98f3E9c8"
  ],
  "numDeployments": 1,
  "solcInputHash": "32d5f4fbe2a94e9ce3f1eae98c922726",
  "bytecode": "0x60a034620000f7576001600160401b0390601f620055c238819003918201601f191683019184831184841017620000e157808492602094604052833981010312620000f757516001600160a01b03811690819003620000f75760405160208101906341546f6d60e01b825260048152604081019381851090851117620000e15760408490525190206002556801158e460913d00000600555600180546001600160a01b031916331790556000805460ff191690556080526154c59081620000fd8239608051818181611de60152818161258e0152818161300d0152613d710152f35b634e487b7160e01b600052604160045260246000fd5b600080fdfe608080604052600436101561001d575b50361561001b57600080fd5b005b60009060e08235811c9182630946e807146142ef575081630c4f65bd146142c6578163145ef6e9146119f4578163158058f614613fa4578163162442e214613e405781631663d3df14613de25781631a80c09a14613d2c5781631df3739a14613cfb5781632c2032c0146134a15781633d2acf8314612d0e57816342b7fa1c14612cd7578163476343ee14612c375781635398690b14612b8d5781635d8d158514612b0657816363a846f814612a3a578163695c2d24146121245781636cbe478114611b355781637217fcfd14611b1757816381929bac14611a125781638783cc8a146119f45781638ad0e26e1461131a5781639b698d1b14610ab2578163a3ec138d146109e8578163a4224e201461084b578163a43064cc146107f3578163a9c63aa0146107d5578163b2054365146106dd57508063c10a7fdb146105e9578063f544bed8146101db5763f6246dcb0361000f57346101d85760203660031901126101d857600435906001600160401b0382116101d85760206101a436600485016143c1565b6040516101cd8382816101c0818301968781519384920161443f565b8101038084520182614385565b519020604051908152f35b80fd5b50346101d857602090816003193601126101d8576004356001600160401b0381116105e55761020e9036906004016143c1565b81903383526102bb6102b5600793848752600460408720019060405191826102398a82018093614640565b039261024d601f1994858101835282614385565b519020916040519289840187519461026f8c82818c01986101c081878c61443f565b51902014801561059e575b156104d257505061028b60016146e7565b6102978451151561471f565b6102b08760405180936101c0885180928585019061443f565b6146c4565b91614fdc565b8184526009855260408420805460ff811660048110156104be57610479578482015460ff8260081c160361043f57426005018060051161042b5790600291600384015560ff191617905561038760405192600283519488818187019761032281838b61443f565b81016006815203019020016103378154614b33565b905560016040518881865161034d81838b61443f565b81016006815203019020016103628154614fcf565b9055846040518881865161037781838b61443f565b8101600681520301902001615336565b926040518681845161039a81838961443f565b8101600681520301902001548310156103f1576103da93946009926103ca9260405193849283925192839161443f565b8101600681520301902001614ed7565b81549060031b9060ff6002831b921b191617905580f35b60405162461bcd60e51b8152600481018690526012602482015271115b1958dd1a5bdb881b9bdd08199bdd5b9960721b6044820152606490fd5b634e487b7160e01b87526011600452602487fd5b60405162461bcd60e51b815260048101889052601260248201527110d85b991a59185d1948139bdd08199d5b1b60721b6044820152606490fd5b60405162461bcd60e51b815260048101889052601e60248201527f456c656374696f6e206973206e6f7420696e207072657061726174696f6e00006044820152606490fd5b634e487b7160e01b87526021600452602487fd5b338852868952610503600460408a20016102b08b6104f7604051938492830190614640565b03848101835282614385565b61051d6040516102b08c828b516101c0818484018c61443f565b1490811591610548575b50610536575b61028b906146e7565b5061054084614fdc565b50600161052d565b61057c9150338952878a526102b0600560408b2001918b610570604051948592830190614640565b03908101835282614385565b6105966040516102b08b828a516101c0818484018b61443f565b141538610527565b50338852868952600560408920016040516105c0816104f78d82018095614640565b5190206040518a8101906105dc8c828b516101c081878c61443f565b5190201461027a565b5080fd5b5060203660031901126101d8576004356001600160401b0381116105e5576106159036906004016143c1565b815460ff81166106d95761063267a688906bd8b000003414614df6565b60018054610100600160a81b0319928316600882901b610100600160a81b0316178086556001600160a01b0319918216909255604051845191948693849384938493602080830193610690928491906101c09082908890860161443f565b5190206002558134156106d0575b349160081c6001600160a01b031690f1156106c55782541682553390600154161760015580f35b6040513d84823e3d90fd5b506108fc61069e565b8280fd5b9050346105e55760203660031901126105e5576004356001600160401b0381116106d95760206107146107279236906004016143c1565b816040519382858094519384920161443f565b810160068152030190209182549060ff8216926001850154946002810154600382015490600483015497610762600660058601549501614575565b96604051986101009760028210156107c15750895260081c6001600160a01b0316602089015260408801526060870152608086015260a085019590955260c0840194909452928201839052909182916107bd91830190614462565b0390f35b634e487b7160e01b81526021600452602490fd5b82346101d857806003193601126101d8576020600454604051908152f35b82346101d857806003193601126101d85761081960018060a01b03600154163314614a05565b805460ff8116158015610836575050805460ff1916600117815580f35b15600114610842575080f35b60ff1916815580f35b9050346105e557602091826003193601126101d8576004356001600160401b0381116105e55761088261089d9136906004016143c1565b6102b085604051836101c0829551809285808601910161443f565b918282526009845260408220906001938560018401549560028086015460405190848201528381526108ce8161434f565b6007870192888454946108e086614923565b9460096108ec8861498a565b986108f689614923565b9a855252600660ff604081952054169b01549b5b878110610983575050505050926109596107bd9796959361096793610946610975976040519e8f9e8f9061010092839183528201520190614462565b9160408d01528b820360608d0152614408565b9089820360808b0152614487565b9087820360a08901526144e4565b9360c0860152840190614518565b8084610990879386614757565b50541661099d828a6149f1565b526109b3836109ac8387614757565b5001614575565b6109bd828c6149f1565b526109c8818b6149f1565b50816109d48286614757565b5001546109e1828d6149f1565b520161090a565b9050346105e55760203660031901126105e5576001600160a01b0391600435838116908190036105e557816040916107bd935260086020522091610aa4835493610a96600182015493610a3d60028401614575565b90610a566004610a4f60038701614575565b9501614575565b95604051998960ff8c9b1615158b5260081c1660208a015260018060801b031990818160801b1660408b0152166060890152806080890152870190614462565b9085820360a0870152614462565b9083820360c0850152614462565b82346101d85760403660031901126101d8576004356001600160401b0381116105e557610ae39036906004016143c1565b9080338252600760205260046040832001604051610b1781610b09602082018095614640565b03601f198101835282614385565b5190206040516020810190610b3760208288516101c08187858d0161443f565b5190201480156112cc575b156112115750610b5260016146e7565b610b6f6040516102b060208286516101c081848401858b0161443f565b9081815260096020526040812090610b8684614fdc565b923382526007602052600360408320015460405190602082015260208152610bad8161434f565b610bcb6040516102b06020828a516101c0818d85808601910161443f565b8352600960205260408320604051610be28161436a565b848152600790910180549085805b8360ff8216106111c0575050505086511561118557610c1187511515614e3e565b828452600960205284549660ff8860101c1661114c57600460ff8916101561113857600260ff8916036110f95760068601546004610c56610c5184614fdc565b61461a565b015460011c600101908160011161042b5711156110b45742600501600511610f84576020610ca99162010003600489019a426005018c5562ff00ff1916178855816040519382858094519384920161443f565b8101600a81520301902096600160ff1989541617885560068601546003890155610cd33389614ac5565b600386015460018901555460028801556024356006880155610cfb6005860160078901614ef7565b826004880155600285015460058801558051906001600160401b0382116110a057610d3682610d2d60088b015461453b565b60088b016147a0565b602090601f831160011461103157610d669291869183611026575b50508160011b916000199060031b1c19161790565b60088701555b8051906001600160401b03821161101257610d9782610d8e60098a015461453b565b60098a016147a0565b602090601f8311600114610fa357610dc69291859183610f985750508160011b916000199060031b1c19161790565b60098601555b815b6007840154811015610e4d5780610e47610ded60019360078801614757565b50604051610dfa8161430b565b60ff825416815260ff610e1a600287850154946020850195865201614575565b918260408201525116915160405192610e328461430b565b835260208301526040820152600a89016147e5565b01610dce565b5083818352600960205260076040842084815560006001820155600060028201556000600382015560006004820155610e8860058201614aea565b600060068201550180549084815581610f44575b846002610f2a60208787610eda610ec660405193600784519587818188019861037781838c61443f565b6009604051868186516103ca81838b61443f565b81549060031b9060ff6003831b921b1916179055600360405184818451610f0281838961443f565b8101600681520301902001610f178154614b33565b905560405193849283925192839161443f565b8101600681520301902001610f3f8154614fcf565b905580f35b81600302916003830403610f8457845260208420908101905b81811015610e9c5780856003925560006001820155610f7e60028201614aea565b01610f5d565b634e487b7160e01b85526011600452602485fd5b015190508880610d51565b9190600988018552602085209085935b601f1984168510610ff7576001945083601f19811610610fde575b505050811b016009860155610dcc565b015160001960f88460031b161c19169055878080610fce565b81810151835560209485019460019093019290910190610fb3565b634e487b7160e01b84526041600452602484fd5b015190508980610d51565b9190600889018652602086209086935b601f1984168510611085576001945083601f1981161061106c575b505050811b016008870155610d6c565b015160001960f88460031b161c1916905588808061105c565b81810151835560209485019460019093019290910190611041565b634e487b7160e01b85526041600452602485fd5b60405162461bcd60e51b815260206004820152601f60248201527f6e6565642035302520746f74616c206d656d62657220746f2066696e697368006044820152606490fd5b60405162461bcd60e51b8152602060048201526017602482015276115b1958dd1a5bdb881a5cc81b9bdd081cdd185c9d1959604a1b6044820152606490fd5b634e487b7160e01b85526021600452602485fd5b60405162461bcd60e51b8152602060048201526011602482015270115b1958dd1a5bdb88199a5b9a5cda1959607a1b6044820152606490fd5b60405162461bcd60e51b8152602060048201526013602482015272125b9d985b1a5908195b1958dd1a5bdb881251606a1b6044820152606490fd5b6111ca8184614757565b5082600180920154116111e7575b506111e290614e2d565b610bf0565b915093506111f58483614757565b5001546111e261120a60026109ac8786614757565b94906111d8565b3382526007602052611239610b096102b0600460408620016040519283916020830190614640565b6112566040516102b060208288516101c081848401858d0161443f565b1480159061127f575b61126d575b610b52906146e7565b5061127782614fdc565b506001611264565b5033825260076020526112a8610b096102b0600560408620016040519283916020830190614640565b6112c56040516102b060208288516101c081848401858d0161443f565b141561125f565b503382526007602052600560408320016040516112f181610b09602082018095614640565b519020604051602081019061131160208288516101c08187858d0161443f565b51902014610b42565b82346101d85760803660031901126101d8576004356001600160401b0381116105e55761134b9036906004016143c1565b6024356001600160401b0381116106d95761136a9036906004016143c1565b6044356001600160401b0381116118de576113899036906004016143c1565b9060ff60643516606435036119ef576113aa600160ff865416151514614a8e565b833385526007602052610b096113d0600460408820016040519283916020830190614640565b602081519101206040516113f160208288516101c081848401858d0161443f565b6020815191012014801561199f575b156118e2575061141060016146e7565b61143a6006604051602081875161142a8183858c0161443f565b810184815203019020015461453b565b156118de576001815111156118ad5760058151101561186d5781516001811115611869576019111561182857600a6002604051602081875161147f8183858c0161443f565b81016006815203019020015410156117ea57600160ff6064351611156117ad576114ee906102b06021604051809387516114c0816020850160208c0161443f565b8201602d60f81b60208201526114df825180936020878501910161443f565b01036001810184520182614385565b80845260096020526040842090600b60205260ff6040862054166117735783516001600160401b03811161175f576115368161152d600586015461453b565b600586016147a0565b6020601f82116001146116f65790806115649288916116eb575b508160011b916000199060031b1c19161790565b60058301555b8060018301556040519183519280602086019480602083019061158d918861443f565b8101038082526020016115a09082614385565b6115a9906146c4565b6002820155805461ffff191661ff0060643560081b16179055808552600b60209081526040808720805460ff1916600117905551855190918291906115f390829084908a0161443f565b8101600681520360200190206007019061160c91614ea2565b6040518351819061162181836020890161443f565b81016006815203602001902060080191604051918291519081602084016116479261443f565b81010380825260200161165a9082614385565b611663906146c4565b61166c91614ea2565b6040518151819061168181836020870161443f565b810160068152036020019020600901805490600160401b821015611012576001926116b683602093866116d696018155614ed7565b60ff82549160031b1b19169055816040519382858094519384920161443f565b8101600681520301902001610f3f8154614b33565b905086015188611550565b906005840187526020872087925b601f1983168410611747576001935082601f1981161061172e575b5050811b01600583015561156a565b87015160001960f88460031b161c19169055878061171f565b87810151825560209384019360019092019101611704565b634e487b7160e01b86526041600452602486fd5b60405162461bcd60e51b8152602060048201526012602482015271456c656374696f6e2049442065786973747360701b6044820152606490fd5b60405162461bcd60e51b81526020600482015260156024820152744d696e696d756d20322063616e646964617465732160581b6044820152606490fd5b60405162461bcd60e51b815260206004820152601660248201527513585e1a5b5d5b48195d995b9d1cc81c995858da195960521b6044820152606490fd5b60405162461bcd60e51b8152602060048201526019602482015278456c656374696f6e206e616d652073686f756c64203c20323560381b6044820152606490fd5b8480fd5b60405162461bcd60e51b815260206004820152601860248201527749442073686f756c64203c2035206368617261637465727360401b6044820152606490fd5b60405162461bcd60e51b81526020600482015260096024820152686572726f722033366160b81b6044820152606490fd5b8380fd5b338552600760205261190a610b096102b0600460408920016040519283916020830190614640565b6119286040516102b060208289516101c0818c85808601910161443f565b14801590611951575b61193f575b611410906146e7565b5061194983614fdc565b506001611936565b50338552600760205261197a610b096102b0600560408920016040519283916020830190614640565b6119986040516102b060208289516101c0818c85808601910161443f565b1415611931565b503385526007602052600560408620016040516119c481610b09602082018095614640565b51902060405160208101906119e6602082816101c08b8781519384920161443f565b51902014611400565b600080fd5b82346101d857806003193601126101d8576020600254604051908152f35b9050346105e55760203660031901126105e557600435916001600160401b0383116101d857506107bd611a50602061071460609536906004016143c1565b8101600a815203019020611b08815491611af96001820154956002830154946003840154916004850154906005860154600687015492611a9260078901614575565b95611aab6009611aa460088c01614575565b9a01614575565b9a6040519e8f9e8f906101609960ff81161515835260018060a01b039060081c1660208301526040820152015260808d015260a08c015260c08b015289015280610100890152870190614462565b90858203610120870152614462565b90838203610140850152614462565b82346101d857806003193601126101d8576020600354604051908152f35b82346101d85760603660031901126101d8576004356001600160401b0381116105e557611b669036906004016143c1565b9060ff6024351680602435036119ef57611b88600160ff845416151514614a8e565b611c44611b9484614fdc565b338452600760205260046040852001604051611bb881610b09602082018095614640565b5190206040519060208201835192611bdb602082818801966101c081878a61443f565b519020149182156120d6575b338652600860205260036040872001604051611c0b81610b09602082018095614640565b5190206040516020810190611c2960208286516101c081878b61443f565b51902014918215612084575b5050811561207c575b506146e7565b611c616040516102b060208287516101c081848401858c0161443f565b82526009602052604082209033835260086020526040832090600283019485549060056044351161207857611c9890511515614e3e565b60078401918254111561203c5760ff845416600481101561202857600203611fe357611cc490336152ad565b611f9357611cd760019160243590614757565b50019081546044358101809111611f7d57600592550192549060405191602083015260208252611d068261434f565b611d0f84614b42565b805160018101809111610f8457611d259061498a565b91845b825163ffffffff821690811015611d855780611d47611d5992866149f1565b51611d5282886149f1565b52856149f1565b5063ffffffff809116908114611d7157600101611d28565b634e487b7160e01b86526011600452602486fd5b8685848a611da18a895190611d9a82876149f1565b52846149f1565b50825192600160401b84116110a0578154848355808510611f50575b506020019084526020842084915b848310611e5a578560068501611de18154614b33565b9055807f00000000000000000000000000000000000000000000000000000000000000006001600160a01b0316803b15611e575781809160446040518094819363289047b960e21b8352336004840152833560248401525af180156106c557611e475750f35b611e509061433c565b6101d85780f35b50fd5b80518051906001600160401b038211611f3c57611e8182611e7b865461453b565b866147a0565b602090601f8311600114611ed25792611eb8836001959460209487968d92611ec75750508160011b916000199060031b1c19161790565b85555b01920192019190611dcb565b015190508c80610d51565b848952602089209190601f1984168a5b818110611f245750936020936001969387969383889510611f0b575b505050811b018555611ebb565b015160001960f88460031b161c191690558b8080611efe565b92936020600181928786015181550195019301611ee2565b634e487b7160e01b88526041600452602488fd5b828652846020872091820191015b818110611f6b5750611dbd565b80611f77600192614aea565b01611f5e565b634e487b7160e01b600052601160045260246000fd5b60405162461bcd60e51b815260206004820152602260248201527f596f7520616c726561647920766f74656420696e207468697320656c6563746960448201526137b760f11b6064820152608490fd5b60405162461bcd60e51b815260206004820152601b60248201527f456c656374696f6e206973206e6f7420696e2070726f677265737300000000006044820152606490fd5b634e487b7160e01b86526021600452602486fd5b60405162461bcd60e51b8152602060048201526014602482015273125b9d985b1a590818d85b991a59185d1948125160621b6044820152606490fd5b8580fd5b905085611c3e565b9091503386526008602052600460408720016040516120ab81610b09602082018095614640565b519020916120cb602060405180936101c08383019687925192839161443f565b519020148680611c35565b91503385526007602052600560408620016040516120fc81610b09602082018095614640565b519020604051602081019061211a60208287516101c081878a61443f565b5190201491611be7565b8260803660031901126101d8576004356001600160401b0381116105e5576121509036906004016143c1565b6024356001600160401b0381116106d95761216f9036906004016143c1565b6044356001600160401b0381116118de5761218e9036906004016143c1565b600260643510156118de57338452600760205260026040852001544310612a0a576121c1600160ff865416151514614a8e565b338452600760205260408420926121db6005543414614df6565b617d0060035410156129da5760066040518451906121fd82826020890161443f565b0152612238604051845161221581836020890161443f565b600690820190815281900360200190205460081c6001600160a01b03161561471f565b61224183615191565b156129a9576122528151151561471f565b602081511015612978576001825111156118695782516003811490811561296d575b5015612928576122838361526c565b6128e3573385526007602052600460408620016040516122ab81610b09602082018095614640565b51902060405160208101906122cb60208288516101c08187858d0161443f565b519020141580612894575b156128595760405160208185516122f08183858a0161443f565b810160068152030190209083516001600160401b038111612672576123258161231c600686015461453b565b600686016147a0565b6020601f82116001146127e75760049261235b836001969461237d948c916127dc57508160011b916000199060031b1c19161790565b60068401555b6102b06020604051836101c0829551809285808601910161443f565b600582015560ff1981541660ff6064351617815561239b3382614ac5565b86600282015501556040519160208301926123ea60268284516123c281896020890161443f565b8101602d60f81b60208201526420b236b4b760d91b6021820152036006810184520182614385565b5192516001600160b01b031981169390600a82106127bc575b5050338552600760205261241d600460408720015461453b565b61268657338552600760205260046040862001908051906001600160401b0382116126725761245682612450855461453b565b856147a0565b602090601f831160011461260657918061248b926124f19695948a926110265750508160011b916000199060031b1c19161790565b90555b33855260076020526040852080546bffffffffffffffffffff0000191660a085901c6bffffffffffffffffffff0000161790555b600184013360018060a01b03198254161790556102b06020604051836101c0829551809285808601910161443f565b600383015561252861251260ff600181198654161780865560081c16614e2d565b835461ff00191660089190911b61ff0016178355565b338352600d60205260408320600160ff1982541617905560018060b01b0319168252600c60205260408220600160ff198254161790554360320190816032116125f2576002015561257a600354614b33565b600355612588600454614b33565b600455807f00000000000000000000000000000000000000000000000000000000000000006001600160a01b0316803b15611e5757604051630624515160e31b8152336004820152600560248201529082908290604490829084905af180156106c557611e475750f35b634e487b7160e01b83526011600452602483fd5b908388526020882091885b601f198516811061265a57509183916001936124f1979695601f19811610612641575b505050811b01905561248e565b015160001960f88460031b161c19169055888080612634565b91926020600181928685015181550194019201612611565b634e487b7160e01b87526041600452602487fd5b338552600760205261269e600560408720015461453b565b156126ae575b506124f1906124c2565b338552600760205260056040862001908051906001600160401b038211612672576126dd82612450855461453b565b602090601f8311600114612750579180612712926124f19695948a926110265750508160011b916000199060031b1c19161790565b90555b338552600760205260408520805469ffffffffffffffffffff60601b1916605085901c69ffffffffffffffffffff60601b16179055906126a4565b908388526020882091885b601f19851681106127a457509183916001936124f1979695601f1981161061278b575b505050811b019055612715565b015160001960f88460031b161c1916905588808061277e565b9192602060018192868501518155019401920161275b565b6001600160b01b0319600a9290920360031b82901b161692508580612403565b90508901518c611550565b6006840188526020882090885b601f198416811061284157509260018361237d93600496839896601f19811610612828575b5050811b016006840155612361565b8a015160001960f88460031b161c191690558b80612819565b9091602060018192858b0151815501930191016127f4565b60405162461bcd60e51b815260206004820152601360248201527210591b5a5b881a5cc81c9959da5cdd195c9959606a1b6044820152606490fd5b503385526007602052600560408620016040516128b981610b09602082018095614640565b51902060405160208101906128d960208288516101c08187858d0161443f565b51902014156122d6565b60405162461bcd60e51b815260206004820152601c60248201527f73706163657320696e204f7267204944206e6f7420616c6c6f776564000000006044820152606490fd5b60405162461bcd60e51b815260206004820152601f60248201527f4f72672049442073686f756c642033206f7220342063686172616374657273006044820152606490fd5b600491501486612274565b60405162461bcd60e51b81526020600482015260096024820152686572726f723a33366360b81b6044820152606490fd5b60405162461bcd60e51b815260206004820152600960248201526832b93937b91d199b3160b91b6044820152606490fd5b60405162461bcd60e51b81526020600482015260086024820152676572726f723a333560c01b6044820152606490fd5b60405162461bcd60e51b815260206004820152600860248201526732b93937b91d199960c11b6044820152606490fd5b82346101d85760203660031901126101d8576001600160a01b0390600435828116908190036105e557816040916107bd935260076020522092612af784549460018060b01b03199460018201541694600282015496600383015494612aa66005610a4f60048701614575565b95604051998a99610120958560ff88971615158d528c602060ff8360081c169101528c6040838360a01b1691015260501b1660608c015260808b015260a08a015260c0890152870152850190614462565b90838203610100850152614462565b9050346105e557816003193601126105e557612b63906107bd612b71612b7f612b2d614b97565b97949a92919360409a91969a519b8c9b15158c52151560208c015260018060a01b031660408b01528060608b0152890190614462565b908782036080890152614487565b9085820360a0870152614487565b9083820360c0850152614487565b82346101d85760203660031901126101d8576040906004358152600960205220805491612c2c60018301549260ff60028201549560038301549460048401546006612bda60058701614575565b95015496604051998a996101209686612bf68d838b9a16614518565b8c6020838360081c1691015260101c16151560408c015260608b015260808a015260a089015260c0880152860152840190614462565b906101008301520390f35b82346101d857806003193601126101d8576001546001600160a01b0316612c5f338214614a05565b4715612c925781808080934790828215612c89575bf115612c7d5780f35b604051903d90823e3d90fd5b506108fc612c74565b60405162461bcd60e51b815260206004820152601a60248201527f4e6f20464c522042616c616e636520696e20436f6e74726163740000000000006044820152606490fd5b82346101d857806003193601126101d85760ff602091612d0260018060a01b03600154163314614a05565b54166040519015158152f35b8260603660031901126101d8576004356001600160401b0381116105e557612d3a9036906004016143c1565b6024356001600160401b0381116106d957612d599036906004016143c1565b906044612d6e600160ff865416151514614a8e565b60055460011c34036118de57338452600860205260408420916040519160208301928135845260208152612da18161434f565b5192516001600160801b03198116939060108210613481575b5050611388600460405160208181612dd88b8381519384920161443f565b810160068152030190200154101561343d57600182511115613400576018825110156133b257338652600860205260036040872001604051612e2281610b09602082018095614640565b5190206040516020810190612e44602082816101c08c8781519384920161443f565b519020141580613361575b8061334a575b156133065760016002612e678761461a565b015410156132ca57612e8b60066040516020818161142a8b8381519384920161443f565b156132865750612e9e600384015461453b565b6131865783516001600160401b03811161175f57612ecc81612ec3600387015461453b565b600387016147a0565b6020601f821160011461311d579080612ef99288916116eb57508160011b916000199060031b1c19161790565b60038401555b6001830180546001600160801b031916608084901c1790555b612f223384614ac5565b8051906001600160401b03821161175f57612f4d82612f44600287015461453b565b600287016147a0565b602090601f83116001146130ae57612f7c92918791836130a35750508160011b916000199060031b1c19161790565b60028301555b83604051612f8f8161436a565b52600582018054908581558161307e575b5050600492612ff49260209260ff199160018382541617905560018060801b0319168652600c835260016040872091825416179055612fdf8454614b33565b8455816040519382858094519384920161443f565b81016006815203019020016130098154614b33565b90557f00000000000000000000000000000000000000000000000000000000000000006001600160a01b0316803b156105e557604051630624515160e31b8152336004820152600560248201529082908290604490829084905af180156106c557613072575080f35b61307b9061433c565b80f35b855260208520908101905b81811015612fa0578061309d600192614aea565b01613089565b015190508780610d51565b9190600285018752602087209087935b601f1984168510613102576001945083601f198116106130e9575b505050811b016002830155612f82565b015160001960f88460031b161c191690558680806130d9565b818101518355602094850194600190930192909101906130be565b906003850187526020872087925b601f198316841061316e576001935082601f19811610613155575b5050811b016003840155612eff565b87015160001960f88460031b161c191690558780613146565b8781015182556020938401936001909201910161312b565b60048301546131948161453b565b156131a0575b50612f18565b8451906001600160401b03821161267257816131be6131c79261453b565b600487016147a0565b6020601f821160011461321d5790806131f49288916116eb57508160011b916000199060031b1c19161790565b60048401555b6001830180546001600160801b03166001600160801b031984161790558561319a565b906004850187526020872087925b601f198316841061326e576001935082601f19811610613255575b5050811b0160048401556131fa565b87015160001960f88460031b161c191690558780613246565b8781015182556020938401936001909201910161322b565b6064907f4f7267616e697a6174696f6e20646f6573206e6f7420657869737400000000006040519162461bcd60e51b835260206004840152601b6024840152820152fd5b60649074456c656374696f6e20696e2070726f67726573732160581b6040519162461bcd60e51b83526020600484015260156024840152820152fd5b6064907f566f746572206973207265676973746572656420696e204f72670000000000006040519162461bcd60e51b835260206004840152601a6024840152820152fd5b50338652600d60205260ff60408720541615612e55565b5033865260086020526004604087200160405161338681610b09602082018095614640565b51902060405160208101906133a8602082816101c08c8781519384920161443f565b5190201415612e4f565b6084907f566f746572206e616d65206c696d6974206973203234206368617261637465726040519162461bcd60e51b83526020600484015260216024840152820152607360f81b6064820152fd5b60649075506c656173652066696c6c20566f746572204e616d6560501b6040519162461bcd60e51b83526020600484015260166024840152820152fd5b6064907f4d6178696d756d206d656d626572206c696d69742072656163686564000000006040519162461bcd60e51b835260206004840152601c6024840152820152fd5b6001600160801b031960109290920360031b82901b161692508680612dba565b82346101d857602091826003193601126105e5576004356001600160401b0381116106d957836107146134d89236906004016143c1565b810160068152030190209260089281600986019461350460086134fd60078a01614a3d565b9801614a3d565b906040519081968792858a54918281520192839a885286882088915b83601f840110613a8857509287926136539592846136749998965493838310613a6c575b838310613a4d575b838310613a2e575b838310613a0f575b8383106139f1575b8383106139d2575b8383106139b3575b838310613994575b838310613975575b838310613956575b838310613937575b838310613918575b8383106138f9575b8383106138da575b8383106138bb575b83831061389c575b83831061387d575b83831061385e575b83831061383f575b838310613820575b838310613801575b8383106137e2575b8383106137c3575b8383106137a4575b838310613785575b838310613766575b838310613747575b838310613728575b83831061370b575b508282106136ee575b8282106136d1575b50106136bb575b506136679b9a999798509493929190940386614385565b60405198899860608a5260608a01906144e4565b90888203848a01526144e4565b92868403604088015251928381520193925b82811061369557505050500390f35b91938395509080826136ab600194839751614518565b0195019101918594939192613686565b816136c89160f81c614518565b0185908c61363c565b846136e56001939660ff8760f01c16614518565b01930184613635565b846137026001939660ff8760e81c16614518565b0193018461362d565b9461371e8160ff87600196991c16614518565b0193018438613624565b9194818161373e60019360ff8960d81c16614518565b0195019161361c565b9194818161375d60019360ff8960d01c16614518565b01950191613614565b9194818161377c60019360ff8960c81c16614518565b0195019161360c565b9194818161379b60019360ff8960c01c16614518565b01950191613604565b919481816137ba60019360ff8960b81c16614518565b019501916135fc565b919481816137d960019360ff8960b01c16614518565b019501916135f4565b919481816137f860019360ff8960a81c16614518565b019501916135ec565b9194818161381760019360ff8960a01c16614518565b019501916135e4565b9194818161383660019360ff8960981c16614518565b019501916135dc565b9194818161385560019360ff8960901c16614518565b019501916135d4565b9194818161387460019360ff8960881c16614518565b019501916135cc565b9194818161389360019360ff8960801c16614518565b019501916135c4565b919481816138b260019360ff8960781c16614518565b019501916135bc565b919481816138d160019360ff8960701c16614518565b019501916135b4565b919481816138f060019360ff8960681c16614518565b019501916135ac565b9194818161390f60019360ff8960601c16614518565b019501916135a4565b9194818161392e60019360ff8960581c16614518565b0195019161359c565b9194818161394d60019360ff8960501c16614518565b01950191613594565b9194818161396c60019360ff8960481c16614518565b0195019161358c565b9194818161398b60019360ff8960401c16614518565b01950191613584565b919481816139aa60019360ff8960381c16614518565b0195019161357c565b919481816139c960019360ff8960301c16614518565b01950191613574565b919481816139e860019360ff8960281c16614518565b0195019161356c565b91948181613a0660019360ff89851c16614518565b01950191613564565b91948181613a2560019360ff8960181c16614518565b0195019161355c565b91948181613a4460019360ff8960101c16614518565b01950191613554565b91948181613a6360019360ff8960081c16614518565b0195019161354c565b91948181613a7f60019360ff8916614518565b01950191613544565b9395509596909193610400600191613ce98954613cdb60ff613aac85828516614518565b613abc88860182858d1c16614518565b613ace60408601828560101c16614518565b613c6d8c613c2587613bdd8c613b956060613af08186018a8d60181c16614518565b613b036080938a8d868901921c16614518565b888b61018060a097613b1c898201858560281c16614518565b613b4060c09b613b338d8401878760301c16614518565b8201858560381c16614518565b613b536101008201858560401c16614518565b613b666101208201858560481c16614518565b613b796101408201858560501c16614518565b613b8c6101608201858560581c16614518565b01921c16614518565b613ba86101a08c01888b60681c16614518565b613bbb6101c08c01888b60701c16614518565b613bce6101e08c01888b60781c16614518565b86896102008d01921c16614518565b613bf06102208a01868960881c16614518565b613c036102408a01868960901c16614518565b613c166102608a01868960981c16614518565b84876102808b01921c16614518565b613c386102a08801848760a81c16614518565b613c4b6102c08801848760b01c16614518565b613c5e6102e08801848760b81c16614518565b82856103008901921c16614518565b613c806103208601828560c81c16614518565b613c936103408601828560d01c16614518565b613ca66103608601828560d81c16614518565b613cb86103808601848e1c8316614518565b613ccb6103a08601828560e81c16614518565b6103c08501908360f01c16614518565b6103e083019060f81c614518565b019601910188969593918a9593613520565b82346101d857806003193601126101d857613d2160018060a01b03600154163314614a05565b602047604051908152f35b82346101d857806003193601126101d8576024602060018060a01b03613d5781600154163314614a05565b604051632fa8a91360e11b815230600482015292839182907f0000000000000000000000000000000000000000000000000000000000000000165afa9081156106c5578291613dac575b602082604051908152f35b90506020813d602011613dda575b81613dc760209383614385565b810103126105e557602091505182613da1565b3d9150613dba565b82346101d85760203660031901126101d857600435613e0c60018060a01b03600154163314614a05565b670de0b6b3a764000090818102918183041490151715613e2c5760055580f35b634e487b7160e01b82526011600452602482fd5b82346101d857602090816003193601126101d8576004356001600160401b0381116105e557613e739036906004016143c1565b906040519180519284820193613e8a81838761443f565b81018186600a93838580955203019020015490613ea682614923565b94613eb08361498a565b93613eba84614923565b955b848110613eff57613ee4886107bd89613ef18d8b604051968796606088526060880190614408565b9186830390870152614487565b9083820360408501526144e4565b80613f5f60026109ac83888e8e613f4a8460ff613f4160019c8f8f888a92613f329260405193849283925192839161443f565b81018481520301902001614757565b505416926149f1565b52604051908180613f328d8d5192839161443f565b613f6982896149f1565b52613f7481886149f1565b5081613f9082878d604051908180613f328c8c5192839161443f565b500154613f9d828a6149f1565b5201613ebc565b82346101d85760403660031901126101d8576001600160401b03906004358281116105e557613fd79036906004016143c1565b916024359081116105e557613ff09036906004016143c1565b918192338352614085602094600786526004604086200190604051918261401a8982018093614640565b039261402e601f1994858101835282614385565b51902091604051928884018751946140508b82818c01986101c081878c61443f565b51902014801561427e575b156141c857505061406c60016146e7565b6102b08660405180936101c0885180928585019061443f565b835260098452604083209151156106d957600782019060ff8254935460081c16831015614189578051801561186957601810614148576140c481615191565b156140ee578361307b949560ff604051956140de8761430b565b16855284015260408301526147e5565b60405162461bcd60e51b815260048101869052602c60248201527f43616e646964617465206e616d652063616e206f6e6c7920636f6e7461696e2060448201526b185b1c1a1858995d1a58d85b60a21b6064820152608490fd5b60405162461bcd60e51b81526004810186905260196024820152786e616d65206c696d697473203234206368617261637465727360381b6044820152606490fd5b60405162461bcd60e51b815260048101869052601760248201527610d85b991a59185d19481b1a5b5a5d081c995858da1959604a1b6044820152606490fd5b338752600788526141ee6104f76102b0600460408b20016040519283918d830190614640565b6142086040516102b08b828b516101c0818484018c61443f565b1490811591614233575b50614221575b61406c906146e7565b5061422b84614fdc565b506001614218565b61425c91506102b061057091338a5260078b52600560408b20016040519384918d830190614640565b6142766040516102b08a828a516101c0818484018b61443f565b141588614212565b5033875260078852600560408820016040516142a1816104f78c82018095614640565b519020604051898101906142bd8b828b516101c081878c61443f565b5190201461405b565b82346101d857806003193601126101d8576001546040516001600160a01b039091168152602090f35b8390346105e557816003193601126105e5576020906005548152f35b606081019081106001600160401b0382111761432657604052565b634e487b7160e01b600052604160045260246000fd5b6001600160401b03811161432657604052565b604081019081106001600160401b0382111761432657604052565b602081019081106001600160401b0382111761432657604052565b90601f801991011681019081106001600160401b0382111761432657604052565b6001600160401b03811161432657601f01601f191660200190565b81601f820112156119ef578035906143d8826143a6565b926143e66040519485614385565b828452602083830101116119ef57816000926020809301838601378301015290565b90815180825260208080930193019160005b828110614428575050505090565b835160ff168552938101939281019260010161441a565b60005b8381106144525750506000910152565b8181015183820152602001614442565b9060209161447b8151809281855285808601910161443f565b601f01601f1916010190565b90808251908181526020809101926020808460051b8301019501936000915b8483106144b65750505050505090565b90919293949584806144d4600193601f198682030187528a51614462565b98019301930191949392906144a6565b90815180825260208080930193019160005b828110614504575050505090565b8351855293810193928101926001016144f6565b9060048210156145255752565b634e487b7160e01b600052602160045260246000fd5b90600182811c9216801561456b575b602083101461455557565b634e487b7160e01b600052602260045260246000fd5b91607f169161454a565b906040519182600082546145888161453b565b908184526020946001916001811690816000146145f857506001146145b9575b5050506145b792500383614385565b565b600090815285812095935091905b8183106145e05750506145b793508201013880806145a8565b855488840185015294850194879450918301916145c7565b925050506145b794925060ff191682840152151560051b8201013880806145a8565b602061463391816040519382858094519384920161443f565b8101600681520301902090565b60009291815461464f8161453b565b926001918083169081156146a9575060011461466c575b50505050565b9091929394506000526020906020600020906000915b8583106146985750505050019038808080614666565b805485840152918301918101614682565b60ff1916845250505081151590910201915038808080614666565b6020815191015190602081106146d8575090565b6000199060200360031b1b1690565b156146ee57565b60405162461bcd60e51b81526020600482015260096024820152686572726f723a33316160b81b6044820152606490fd5b1561472657565b60405162461bcd60e51b81526020600482015260096024820152686572726f723a33366160b81b6044820152606490fd5b8054821015614773576000526003602060002091020190600090565b634e487b7160e01b600052603260045260246000fd5b818110614794575050565b60008155600101614789565b9190601f81116147af57505050565b6145b7926000526020600020906020601f840160051c830193106147db575b601f0160051c0190614789565b90915081906147ce565b91908254600160401b8110156143265761480790600194600182018155614757565b6148f65760ff82511660ff19825416178155604060026020926020850151600182015501920151938451916001600160401b0383116143265761484e83611e7b865461453b565b602091601f841160011461489157505081906148829394956000926148865750508160011b916000199060031b1c19161790565b9055565b015190503880610d51565b600085815260208120601f1986169890949390925b8983106148df57505050836001959697106148c6575b505050811b019055565b015160001960f88460031b161c191690553880806148bc565b8385015186559485019493810193918101916148a6565b634e487b7160e01b600052600060045260246000fd5b6001600160401b0381116143265760051b60200190565b9061492d8261490c565b61493a6040519182614385565b828152809261494b601f199161490c565b0190602036910137565b604090604051916149658361430b565b600283528260005b82811061497957505050565b80606060208093850101520161496d565b906149948261490c565b6149a16040519182614385565b82815280926149b2601f199161490c565b019060005b8281106149c357505050565b8060606020809385010152016149b7565b8051156147735760200190565b8051600110156147735760400190565b80518210156147735760209160051b010190565b15614a0c57565b60405162461bcd60e51b815260206004820152600960248201526832b93937b91d1998b160b91b6044820152606490fd5b90604051918281549182825260209260208301916000526020600020936000905b828210614a74575050506145b792500383614385565b855484526001958601958895509381019390910190614a5e565b15614a9557565b60405162461bcd60e51b81526020600482015260086024820152676572726f723a333360c01b6044820152606490fd5b8054610100600160a81b03191660089290921b610100600160a81b0316919091179055565b614af4815461453b565b9081614afe575050565b81601f60009311600114614b10575055565b908083918252614b2f601f60208420940160051c840160018501614789565b5555565b6000198114611f7d5760010190565b908154614b4e8161490c565b92614b5c6040519485614385565b818452600090815260208082208186015b848410614b7b575050505050565b6001838192614b8985614575565b815201920193019290614b6d565b3360003381526020906007825260409060ff8282205416600014614caf576001600160a01b03841681526007835281812090614bd1614955565b92614bde60048401614575565b614be7856149d4565b52614bf1846149d4565b50614bfe60058401614575565b614c07856149e1565b52614c11846149e1565b506003614c1c614955565b93805460018060b01b03198451818360a01b168a820152600a8152614c408161434f565b614c49886149d4565b52614c53876149d4565b5084519160501b1688820152600a8152614c6c8161434f565b614c75866149e1565b52614c7f856149e1565b50015494815195818701528552614c958561434f565b5190614ca08261436a565b81526001956001959493929190565b93916008815260ff8286205416600014614daf576001600160a01b038416855260088152818520614cde614955565b92614ceb60038301614575565b614cf4856149d4565b52614cfe846149d4565b50614d0b60048301614575565b614d14856149e1565b52614d1e846149e1565b50614d27614955565b9260018301549180519060018060801b031991828560801b168482015260108152614d518161434f565b614d5a876149d4565b52614d64866149d4565b505192169082015260108152614d798161434f565b614d82836149e1565b52614d8c826149e1565b506001959493614dac6005614da360028501614575565b95949301614b42565b90565b50809193925051614dbf8161436a565b8281528151614dcd8161436a565b8381528251614ddb8161436a565b84815284958533955190614dee8261436a565b815293929190565b15614dfd57565b60405162461bcd60e51b8152602060048201526008602482015267195c9c9bdc8e8ccd60c21b6044820152606490fd5b60ff1660ff8114611f7d5760010190565b15614e4557565b60405162461bcd60e51b815260206004820152601a60248201527f456c656374696f6e2049442063616e277420626520656d7074790000000000006044820152606490fd5b80548210156147735760005260206000200190600090565b8054600160401b81101561432657614ebf91600182018155614e8a565b819291549060031b91821b91600019901b1916179055565b919091805483101561477357600052601f60206000208360051c01921690565b90808214614fcb57614f09815461453b565b906001600160401b03821161432657614f2682612450855461453b565b600090601f8311600114614f6157614882929160009183614f565750508160011b916000199060031b1c19161790565b015490503880610d51565b815260208082208483528183209291601f1985169083905b828210614fb2575050908460019594939210614f9957505050811b019055565b015460001960f88460031b161c191690553880806148bc565b8495819295850154815560018091019601940190614f79565b5050565b8015611f7d576000190190565b604051614fe88161434f565b60019182825260208201602d60f81b815283846000905b61512e575b5061500e9061498a565b93600091600094826000905b6150a9575b505050508161503491615045949351916153b2565b61503e82856149f1565b52826149f1565b5080511561505a57615056906149d4565b5190565b60405162461bcd60e51b815260206004820152602160248201527f496e76616c696420637573746f6d20656c656374696f6e20494420666f726d616044820152601d60fa1b6064820152608490fd5b8551811015615129576001600160f81b0319806150c68389615180565b51169083511561477357845116146150e1575b83018361501a565b9593866150f191879493946153b2565b6150fb85896149f1565b5261510684886149f1565b5082860191828711611f7d578361511e819496614b33565b9791929350506150d9565b61501f565b835181101561517b576001600160f81b0319908161514c8287615180565b511686511561477357879285511614615168575b810190614fff565b916151738291614b33565b929050615160565b615004565b908151811015614773570160200190565b6000805b8251811015615264576151a88184615180565b51603060f891821c1015908161524b575b8115615215575b81156151db575b50156151d557600101615195565b50905090565b905060616151e98386615180565b51821c101590816151fc575b50386151c7565b607a915061520a8386615180565b51901c1115386151f5565b905060416152238386615180565b51821c101580615234575b906151c0565b50605a6152418386615180565b51821c111561522e565b905060396152598386615180565b51821c1115906151b9565b505050600190565b60005b81518110156152a657600160fd1b6001600160f81b03196152908385615180565b51161461529f5760010161526f565b5050600190565b5050600090565b6001600160a01b0316600090815260086020908152604080832060050180549491939192915b8581106152e557505050505050600090565b6152ef8183614e8a565b50855161530381610b098782018095614640565b51902085518481019086825285815261531b8161434f565b5190201461532b576001016152d3565b505050505050600190565b9060005b8254811015615368578161534e8285614e8a565b90549060031b1c146153625760010161533a565b91505090565b60405162461bcd60e51b8152602060048201526015602482015274115b1958dd1a5bdb881251081b9bdd08199bdd5b99605a1b6044820152606490fd5b91908203918211611f7d57565b92918082111580615484575b15615443576153cd82826153a5565b916153d7836143a6565b926153e56040519485614385565b8084526153f4601f19916143a6565b01366020850137805b82811061540c57509193505050565b6001906001600160f81b03196154228289615180565b511661543c61543185846153a5565b9160001a9187615180565b53016153fd565b60405162461bcd60e51b8152602060048201526019602482015278496e76616c696420737562737472696e6720696e646963657360381b6044820152606490fd5b5083518111156153be56fea2646970667358221220a3d3ed0ae09c6f5ecf41a543b748a447a22ec60911d83624d7b490902d28ce0e64736f6c63430008180033",
  "devdoc": {
    "kind": "dev",
    "methods": {},
    "version": 1
  },
  "userdoc": {
    "kind": "user",
    "methods": {},
    "version": 1
  },
  "storageLayout": {
    "storage": [
      {
        "astId": 3999,
        "contract": "contracts/Ultimate_VotreXSystemRC2.sol:VotreXSystemA1",
        "label": "VotreXActivated",
        "offset": 0,
        "slot": "0",
        "type": "t_bool"
      },
      {
        "astId": 4001,
        "contract": "contracts/Ultimate_VotreXSystemRC2.sol:VotreXSystemA1",
        "label": "previousVotreXOwnerAddress",
        "offset": 1,
        "slot": "0",
        "type": "t_address"
      },
      {
        "astId": 4003,
        "contract": "contracts/Ultimate_VotreXSystemRC2.sol:VotreXSystemA1",
        "label": "VotreXOwnerAddress",
        "offset": 0,
        "slot": "1",
        "type": "t_address"
      },
      {
        "astId": 4011,
        "contract": "contracts/Ultimate_VotreXSystemRC2.sol:VotreXSystemA1",
        "label": "VotreXOwnerName",
        "offset": 0,
        "slot": "2",
        "type": "t_bytes32"
      },
      {
        "astId": 4013,
        "contract": "contracts/Ultimate_VotreXSystemRC2.sol:VotreXSystemA1",
        "label": "organizationsCounter",
        "offset": 0,
        "slot": "3",
        "type": "t_uint256"
      },
      {
        "astId": 4015,
        "contract": "contracts/Ultimate_VotreXSystemRC2.sol:VotreXSystemA1",
        "label": "VotreXUserCounter",
        "offset": 0,
        "slot": "4",
        "type": "t_uint256"
      },
      {
        "astId": 4018,
        "contract": "contracts/Ultimate_VotreXSystemRC2.sol:VotreXSystemA1",
        "label": "OrganizationPriceFee",
        "offset": 0,
        "slot": "5",
        "type": "t_uint256"
      },
      {
        "astId": 4023,
        "contract": "contracts/Ultimate_VotreXSystemRC2.sol:VotreXSystemA1",
        "label": "organizationData",
        "offset": 0,
        "slot": "6",
        "type": "t_mapping(t_string_memory_ptr,t_struct(Organization)4091_storage)"
      },
      {
        "astId": 4028,
        "contract": "contracts/Ultimate_VotreXSystemRC2.sol:VotreXSystemA1",
        "label": "admin",
        "offset": 0,
        "slot": "7",
        "type": "t_mapping(t_address,t_struct(ElectionAdmins)4110_storage)"
      },
      {
        "astId": 4033,
        "contract": "contracts/Ultimate_VotreXSystemRC2.sol:VotreXSystemA1",
        "label": "voters",
        "offset": 0,
        "slot": "8",
        "type": "t_mapping(t_address,t_struct(Voter)4155_storage)"
      },
      {
        "astId": 4038,
        "contract": "contracts/Ultimate_VotreXSystemRC2.sol:VotreXSystemA1",
        "label": "electionInfo",
        "offset": 0,
        "slot": "9",
        "type": "t_mapping(t_bytes32,t_struct(ElectionDetail)4179_storage)"
      },
      {
        "astId": 4043,
        "contract": "contracts/Ultimate_VotreXSystemRC2.sol:VotreXSystemA1",
        "label": "electionResults",
        "offset": 0,
        "slot": "10",
        "type": "t_mapping(t_string_memory_ptr,t_struct(ElectionResult)4137_storage)"
      },
      {
        "astId": 4047,
        "contract": "contracts/Ultimate_VotreXSystemRC2.sol:VotreXSystemA1",
        "label": "electionExistanceChecks",
        "offset": 0,
        "slot": "11",
        "type": "t_mapping(t_bytes32,t_bool)"
      },
      {
        "astId": 4051,
        "contract": "contracts/Ultimate_VotreXSystemRC2.sol:VotreXSystemA1",
        "label": "votersIDExists",
        "offset": 0,
        "slot": "12",
        "type": "t_mapping(t_bytes16,t_bool)"
      },
      {
        "astId": 4055,
        "contract": "contracts/Ultimate_VotreXSystemRC2.sol:VotreXSystemA1",
        "label": "registeredAdmin",
        "offset": 0,
        "slot": "13",
        "type": "t_mapping(t_address,t_bool)"
      }
    ],
    "types": {
      "t_address": {
        "encoding": "inplace",
        "label": "address",
        "numberOfBytes": "20"
      },
      "t_array(t_bytes32)dyn_storage": {
        "base": "t_bytes32",
        "encoding": "dynamic_array",
        "label": "bytes32[]",
        "numberOfBytes": "32"
      },
      "t_array(t_enum(ElectionStatus)4060)dyn_storage": {
        "base": "t_enum(ElectionStatus)4060",
        "encoding": "dynamic_array",
        "label": "enum VotreXSystemA1.ElectionStatus[]",
        "numberOfBytes": "32"
      },
      "t_array(t_string_storage)dyn_storage": {
        "base": "t_string_storage",
        "encoding": "dynamic_array",
        "label": "string[]",
        "numberOfBytes": "32"
      },
      "t_array(t_struct(CandidateDetail)4186_storage)dyn_storage": {
        "base": "t_struct(CandidateDetail)4186_storage",
        "encoding": "dynamic_array",
        "label": "struct VotreXSystemA1.CandidateDetail[]",
        "numberOfBytes": "32"
      },
      "t_bool": {
        "encoding": "inplace",
        "label": "bool",
        "numberOfBytes": "1"
      },
      "t_bytes10": {
        "encoding": "inplace",
        "label": "bytes10",
        "numberOfBytes": "10"
      },
      "t_bytes16": {
        "encoding": "inplace",
        "label": "bytes16",
        "numberOfBytes": "16"
      },
      "t_bytes32": {
        "encoding": "inplace",
        "label": "bytes32",
        "numberOfBytes": "32"
      },
      "t_enum(ElectionStatus)4060": {
        "encoding": "inplace",
        "label": "enum VotreXSystemA1.ElectionStatus",
        "numberOfBytes": "1"
      },
      "t_enum(OrganizationType)4063": {
        "encoding": "inplace",
        "label": "enum VotreXSystemA1.OrganizationType",
        "numberOfBytes": "1"
      },
      "t_mapping(t_address,t_bool)": {
        "encoding": "mapping",
        "key": "t_address",
        "label": "mapping(address => bool)",
        "numberOfBytes": "32",
        "value": "t_bool"
      },
      "t_mapping(t_address,t_struct(ElectionAdmins)4110_storage)": {
        "encoding": "mapping",
        "key": "t_address",
        "label": "mapping(address => struct VotreXSystemA1.ElectionAdmins)",
        "numberOfBytes": "32",
        "value": "t_struct(ElectionAdmins)4110_storage"
      },
      "t_mapping(t_address,t_struct(Voter)4155_storage)": {
        "encoding": "mapping",
        "key": "t_address",
        "label": "mapping(address => struct VotreXSystemA1.Voter)",
        "numberOfBytes": "32",
        "value": "t_struct(Voter)4155_storage"
      },
      "t_mapping(t_bytes16,t_bool)": {
        "encoding": "mapping",
        "key": "t_bytes16",
        "label": "mapping(bytes16 => bool)",
        "numberOfBytes": "32",
        "value": "t_bool"
      },
      "t_mapping(t_bytes32,t_bool)": {
        "encoding": "mapping",
        "key": "t_bytes32",
        "label": "mapping(bytes32 => bool)",
        "numberOfBytes": "32",
        "value": "t_bool"
      },
      "t_mapping(t_bytes32,t_struct(ElectionDetail)4179_storage)": {
        "encoding": "mapping",
        "key": "t_bytes32",
        "label": "mapping(bytes32 => struct VotreXSystemA1.ElectionDetail)",
        "numberOfBytes": "32",
        "value": "t_struct(ElectionDetail)4179_storage"
      },
      "t_mapping(t_string_memory_ptr,t_struct(ElectionResult)4137_storage)": {
        "encoding": "mapping",
        "key": "t_string_memory_ptr",
        "label": "mapping(string => struct VotreXSystemA1.ElectionResult)",
        "numberOfBytes": "32",
        "value": "t_struct(ElectionResult)4137_storage"
      },
      "t_mapping(t_string_memory_ptr,t_struct(Organization)4091_storage)": {
        "encoding": "mapping",
        "key": "t_string_memory_ptr",
        "label": "mapping(string => struct VotreXSystemA1.Organization)",
        "numberOfBytes": "32",
        "value": "t_struct(Organization)4091_storage"
      },
      "t_string_memory_ptr": {
        "encoding": "bytes",
        "label": "string",
        "numberOfBytes": "32"
      },
      "t_string_storage": {
        "encoding": "bytes",
        "label": "string",
        "numberOfBytes": "32"
      },
      "t_struct(CandidateDetail)4186_storage": {
        "encoding": "inplace",
        "label": "struct VotreXSystemA1.CandidateDetail",
        "members": [
          {
            "astId": 4181,
            "contract": "contracts/Ultimate_VotreXSystemRC2.sol:VotreXSystemA1",
            "label": "candidateID",
            "offset": 0,
            "slot": "0",
            "type": "t_uint8"
          },
          {
            "astId": 4183,
            "contract": "contracts/Ultimate_VotreXSystemRC2.sol:VotreXSystemA1",
            "label": "candidateVoteCount",
            "offset": 0,
            "slot": "1",
            "type": "t_uint256"
          },
          {
            "astId": 4185,
            "contract": "contracts/Ultimate_VotreXSystemRC2.sol:VotreXSystemA1",
            "label": "candidateName",
            "offset": 0,
            "slot": "2",
            "type": "t_string_storage"
          }
        ],
        "numberOfBytes": "96"
      },
      "t_struct(ElectionAdmins)4110_storage": {
        "encoding": "inplace",
        "label": "struct VotreXSystemA1.ElectionAdmins",
        "members": [
          {
            "astId": 4093,
            "contract": "contracts/Ultimate_VotreXSystemRC2.sol:VotreXSystemA1",
            "label": "isRegistered",
            "offset": 0,
            "slot": "0",
            "type": "t_bool"
          },
          {
            "astId": 4095,
            "contract": "contracts/Ultimate_VotreXSystemRC2.sol:VotreXSystemA1",
            "label": "adminOrgCount",
            "offset": 1,
            "slot": "0",
            "type": "t_uint8"
          },
          {
            "astId": 4097,
            "contract": "contracts/Ultimate_VotreXSystemRC2.sol:VotreXSystemA1",
            "label": "AdminVoterIDOrg1",
            "offset": 2,
            "slot": "0",
            "type": "t_bytes10"
          },
          {
            "astId": 4099,
            "contract": "contracts/Ultimate_VotreXSystemRC2.sol:VotreXSystemA1",
            "label": "AdminVoterIDOrg2",
            "offset": 12,
            "slot": "0",
            "type": "t_bytes10"
          },
          {
            "astId": 4101,
            "contract": "contracts/Ultimate_VotreXSystemRC2.sol:VotreXSystemA1",
            "label": "electionAdminAddress",
            "offset": 0,
            "slot": "1",
            "type": "t_address"
          },
          {
            "astId": 4103,
            "contract": "contracts/Ultimate_VotreXSystemRC2.sol:VotreXSystemA1",
            "label": "nextOrgCreationBlock",
            "offset": 0,
            "slot": "2",
            "type": "t_uint256"
          },
          {
            "astId": 4105,
            "contract": "contracts/Ultimate_VotreXSystemRC2.sol:VotreXSystemA1",
            "label": "adminName",
            "offset": 0,
            "slot": "3",
            "type": "t_bytes32"
          },
          {
            "astId": 4107,
            "contract": "contracts/Ultimate_VotreXSystemRC2.sol:VotreXSystemA1",
            "label": "RegisteredOrgID1",
            "offset": 0,
            "slot": "4",
            "type": "t_string_storage"
          },
          {
            "astId": 4109,
            "contract": "contracts/Ultimate_VotreXSystemRC2.sol:VotreXSystemA1",
            "label": "RegisteredOrgID2",
            "offset": 0,
            "slot": "5",
            "type": "t_string_storage"
          }
        ],
        "numberOfBytes": "192"
      },
      "t_struct(ElectionDetail)4179_storage": {
        "encoding": "inplace",
        "label": "struct VotreXSystemA1.ElectionDetail",
        "members": [
          {
            "astId": 4158,
            "contract": "contracts/Ultimate_VotreXSystemRC2.sol:VotreXSystemA1",
            "label": "status",
            "offset": 0,
            "slot": "0",
            "type": "t_enum(ElectionStatus)4060"
          },
          {
            "astId": 4160,
            "contract": "contracts/Ultimate_VotreXSystemRC2.sol:VotreXSystemA1",
            "label": "candidateList",
            "offset": 1,
            "slot": "0",
            "type": "t_uint8"
          },
          {
            "astId": 4162,
            "contract": "contracts/Ultimate_VotreXSystemRC2.sol:VotreXSystemA1",
            "label": "isFinished",
            "offset": 2,
            "slot": "0",
            "type": "t_bool"
          },
          {
            "astId": 4164,
            "contract": "contracts/Ultimate_VotreXSystemRC2.sol:VotreXSystemA1",
            "label": "electionID",
            "offset": 0,
            "slot": "1",
            "type": "t_bytes32"
          },
          {
            "astId": 4166,
            "contract": "contracts/Ultimate_VotreXSystemRC2.sol:VotreXSystemA1",
            "label": "electionName",
            "offset": 0,
            "slot": "2",
            "type": "t_bytes32"
          },
          {
            "astId": 4168,
            "contract": "contracts/Ultimate_VotreXSystemRC2.sol:VotreXSystemA1",
            "label": "startTime",
            "offset": 0,
            "slot": "3",
            "type": "t_uint256"
          },
          {
            "astId": 4170,
            "contract": "contracts/Ultimate_VotreXSystemRC2.sol:VotreXSystemA1",
            "label": "endTime",
            "offset": 0,
            "slot": "4",
            "type": "t_uint256"
          },
          {
            "astId": 4172,
            "contract": "contracts/Ultimate_VotreXSystemRC2.sol:VotreXSystemA1",
            "label": "orgID",
            "offset": 0,
            "slot": "5",
            "type": "t_string_storage"
          },
          {
            "astId": 4174,
            "contract": "contracts/Ultimate_VotreXSystemRC2.sol:VotreXSystemA1",
            "label": "totalParticipants",
            "offset": 0,
            "slot": "6",
            "type": "t_uint256"
          },
          {
            "astId": 4178,
            "contract": "contracts/Ultimate_VotreXSystemRC2.sol:VotreXSystemA1",
            "label": "candidates",
            "offset": 0,
            "slot": "7",
            "type": "t_array(t_struct(CandidateDetail)4186_storage)dyn_storage"
          }
        ],
        "numberOfBytes": "256"
      },
      "t_struct(ElectionResult)4137_storage": {
        "encoding": "inplace",
        "label": "struct VotreXSystemA1.ElectionResult",
        "members": [
          {
            "astId": 4112,
            "contract": "contracts/Ultimate_VotreXSystemRC2.sol:VotreXSystemA1",
            "label": "isPruned",
            "offset": 0,
            "slot": "0",
            "type": "t_bool"
          },
          {
            "astId": 4114,
            "contract": "contracts/Ultimate_VotreXSystemRC2.sol:VotreXSystemA1",
            "label": "adminAddress",
            "offset": 1,
            "slot": "0",
            "type": "t_address"
          },
          {
            "astId": 4116,
            "contract": "contracts/Ultimate_VotreXSystemRC2.sol:VotreXSystemA1",
            "label": "startTime",
            "offset": 0,
            "slot": "1",
            "type": "t_uint256"
          },
          {
            "astId": 4118,
            "contract": "contracts/Ultimate_VotreXSystemRC2.sol:VotreXSystemA1",
            "label": "endTime",
            "offset": 0,
            "slot": "2",
            "type": "t_uint256"
          },
          {
            "astId": 4120,
            "contract": "contracts/Ultimate_VotreXSystemRC2.sol:VotreXSystemA1",
            "label": "totalVoter",
            "offset": 0,
            "slot": "3",
            "type": "t_uint256"
          },
          {
            "astId": 4122,
            "contract": "contracts/Ultimate_VotreXSystemRC2.sol:VotreXSystemA1",
            "label": "electionID",
            "offset": 0,
            "slot": "4",
            "type": "t_bytes32"
          },
          {
            "astId": 4124,
            "contract": "contracts/Ultimate_VotreXSystemRC2.sol:VotreXSystemA1",
            "label": "electionName",
            "offset": 0,
            "slot": "5",
            "type": "t_bytes32"
          },
          {
            "astId": 4126,
            "contract": "contracts/Ultimate_VotreXSystemRC2.sol:VotreXSystemA1",
            "label": "digitalSignature",
            "offset": 0,
            "slot": "6",
            "type": "t_bytes32"
          },
          {
            "astId": 4128,
            "contract": "contracts/Ultimate_VotreXSystemRC2.sol:VotreXSystemA1",
            "label": "registeredOrganization",
            "offset": 0,
            "slot": "7",
            "type": "t_string_storage"
          },
          {
            "astId": 4130,
            "contract": "contracts/Ultimate_VotreXSystemRC2.sol:VotreXSystemA1",
            "label": "electionWinner",
            "offset": 0,
            "slot": "8",
            "type": "t_string_storage"
          },
          {
            "astId": 4132,
            "contract": "contracts/Ultimate_VotreXSystemRC2.sol:VotreXSystemA1",
            "label": "signedBy",
            "offset": 0,
            "slot": "9",
            "type": "t_string_storage"
          },
          {
            "astId": 4136,
            "contract": "contracts/Ultimate_VotreXSystemRC2.sol:VotreXSystemA1",
            "label": "candidates",
            "offset": 0,
            "slot": "10",
            "type": "t_array(t_struct(CandidateDetail)4186_storage)dyn_storage"
          }
        ],
        "numberOfBytes": "352"
      },
      "t_struct(Organization)4091_storage": {
        "encoding": "inplace",
        "label": "struct VotreXSystemA1.Organization",
        "members": [
          {
            "astId": 4066,
            "contract": "contracts/Ultimate_VotreXSystemRC2.sol:VotreXSystemA1",
            "label": "orgType",
            "offset": 0,
            "slot": "0",
            "type": "t_enum(OrganizationType)4063"
          },
          {
            "astId": 4068,
            "contract": "contracts/Ultimate_VotreXSystemRC2.sol:VotreXSystemA1",
            "label": "electionAdminAddresses",
            "offset": 1,
            "slot": "0",
            "type": "t_address"
          },
          {
            "astId": 4070,
            "contract": "contracts/Ultimate_VotreXSystemRC2.sol:VotreXSystemA1",
            "label": "onPreparationElectionCounter",
            "offset": 0,
            "slot": "1",
            "type": "t_uint256"
          },
          {
            "astId": 4072,
            "contract": "contracts/Ultimate_VotreXSystemRC2.sol:VotreXSystemA1",
            "label": "activeElectionCounter",
            "offset": 0,
            "slot": "2",
            "type": "t_uint256"
          },
          {
            "astId": 4074,
            "contract": "contracts/Ultimate_VotreXSystemRC2.sol:VotreXSystemA1",
            "label": "archivedElectionCounter",
            "offset": 0,
            "slot": "3",
            "type": "t_uint256"
          },
          {
            "astId": 4076,
            "contract": "contracts/Ultimate_VotreXSystemRC2.sol:VotreXSystemA1",
            "label": "totalMembers",
            "offset": 0,
            "slot": "4",
            "type": "t_uint256"
          },
          {
            "astId": 4078,
            "contract": "contracts/Ultimate_VotreXSystemRC2.sol:VotreXSystemA1",
            "label": "orgName",
            "offset": 0,
            "slot": "5",
            "type": "t_bytes32"
          },
          {
            "astId": 4080,
            "contract": "contracts/Ultimate_VotreXSystemRC2.sol:VotreXSystemA1",
            "label": "orgID",
            "offset": 0,
            "slot": "6",
            "type": "t_string_storage"
          },
          {
            "astId": 4083,
            "contract": "contracts/Ultimate_VotreXSystemRC2.sol:VotreXSystemA1",
            "label": "electionIDs",
            "offset": 0,
            "slot": "7",
            "type": "t_array(t_bytes32)dyn_storage"
          },
          {
            "astId": 4086,
            "contract": "contracts/Ultimate_VotreXSystemRC2.sol:VotreXSystemA1",
            "label": "ElectionName",
            "offset": 0,
            "slot": "8",
            "type": "t_array(t_bytes32)dyn_storage"
          },
          {
            "astId": 4090,
            "contract": "contracts/Ultimate_VotreXSystemRC2.sol:VotreXSystemA1",
            "label": "electionStatus",
            "offset": 0,
            "slot": "9",
            "type": "t_array(t_enum(ElectionStatus)4060)dyn_storage"
          }
        ],
        "numberOfBytes": "320"
      },
      "t_struct(Voter)4155_storage": {
        "encoding": "inplace",
        "label": "struct VotreXSystemA1.Voter",
        "members": [
          {
            "astId": 4139,
            "contract": "contracts/Ultimate_VotreXSystemRC2.sol:VotreXSystemA1",
            "label": "isRegistered",
            "offset": 0,
            "slot": "0",
            "type": "t_bool"
          },
          {
            "astId": 4141,
            "contract": "contracts/Ultimate_VotreXSystemRC2.sol:VotreXSystemA1",
            "label": "VoterAddress",
            "offset": 1,
            "slot": "0",
            "type": "t_address"
          },
          {
            "astId": 4143,
            "contract": "contracts/Ultimate_VotreXSystemRC2.sol:VotreXSystemA1",
            "label": "VoterIDOrg1",
            "offset": 0,
            "slot": "1",
            "type": "t_bytes16"
          },
          {
            "astId": 4145,
            "contract": "contracts/Ultimate_VotreXSystemRC2.sol:VotreXSystemA1",
            "label": "VoterIDOrg2",
            "offset": 16,
            "slot": "1",
            "type": "t_bytes16"
          },
          {
            "astId": 4147,
            "contract": "contracts/Ultimate_VotreXSystemRC2.sol:VotreXSystemA1",
            "label": "VoterName",
            "offset": 0,
            "slot": "2",
            "type": "t_string_storage"
          },
          {
            "astId": 4149,
            "contract": "contracts/Ultimate_VotreXSystemRC2.sol:VotreXSystemA1",
            "label": "RegisteredOrgID1",
            "offset": 0,
            "slot": "3",
            "type": "t_string_storage"
          },
          {
            "astId": 4151,
            "contract": "contracts/Ultimate_VotreXSystemRC2.sol:VotreXSystemA1",
            "label": "RegisteredOrgID2",
            "offset": 0,
            "slot": "4",
            "type": "t_string_storage"
          },
          {
            "astId": 4154,
            "contract": "contracts/Ultimate_VotreXSystemRC2.sol:VotreXSystemA1",
            "label": "participatedElectionEvents",
            "offset": 0,
            "slot": "5",
            "type": "t_array(t_string_storage)dyn_storage"
          }
        ],
        "numberOfBytes": "192"
      },
      "t_uint256": {
        "encoding": "inplace",
        "label": "uint256",
        "numberOfBytes": "32"
      },
      "t_uint8": {
        "encoding": "inplace",
        "label": "uint8",
        "numberOfBytes": "1"
      }
    }
  }
}