{
  "address": "0x6c826F349d8fd94C7C5a5ABb916E7227aa28683c",
  "abi": [
    {
      "inputs": [
        {
          "internalType": "uint256",
          "name": "_initialMintedToken",
          "type": "uint256"
        },
        {
          "internalType": "uint256",
          "name": "_MaxSupplies",
          "type": "uint256"
        }
      ],
      "stateMutability": "nonpayable",
      "type": "constructor"
    },
    {
      "inputs": [],
      "name": "ECDSAInvalidSignature",
      "type": "error"
    },
    {
      "inputs": [
        {
          "internalType": "uint256",
          "name": "length",
          "type": "uint256"
        }
      ],
      "name": "ECDSAInvalidSignatureLength",
      "type": "error"
    },
    {
      "inputs": [
        {
          "internalType": "bytes32",
          "name": "s",
          "type": "bytes32"
        }
      ],
      "name": "ECDSAInvalidSignatureS",
      "type": "error"
    },
    {
      "inputs": [
        {
          "internalType": "address",
          "name": "spender",
          "type": "address"
        },
        {
          "internalType": "uint256",
          "name": "allowance",
          "type": "uint256"
        },
        {
          "internalType": "uint256",
          "name": "needed",
          "type": "uint256"
        }
      ],
      "name": "ERC20InsufficientAllowance",
      "type": "error"
    },
    {
      "inputs": [
        {
          "internalType": "address",
          "name": "sender",
          "type": "address"
        },
        {
          "internalType": "uint256",
          "name": "balance",
          "type": "uint256"
        },
        {
          "internalType": "uint256",
          "name": "needed",
          "type": "uint256"
        }
      ],
      "name": "ERC20InsufficientBalance",
      "type": "error"
    },
    {
      "inputs": [
        {
          "internalType": "address",
          "name": "approver",
          "type": "address"
        }
      ],
      "name": "ERC20InvalidApprover",
      "type": "error"
    },
    {
      "inputs": [
        {
          "internalType": "address",
          "name": "receiver",
          "type": "address"
        }
      ],
      "name": "ERC20InvalidReceiver",
      "type": "error"
    },
    {
      "inputs": [
        {
          "internalType": "address",
          "name": "sender",
          "type": "address"
        }
      ],
      "name": "ERC20InvalidSender",
      "type": "error"
    },
    {
      "inputs": [
        {
          "internalType": "address",
          "name": "spender",
          "type": "address"
        }
      ],
      "name": "ERC20InvalidSpender",
      "type": "error"
    },
    {
      "inputs": [
        {
          "internalType": "uint256",
          "name": "deadline",
          "type": "uint256"
        }
      ],
      "name": "ERC2612ExpiredSignature",
      "type": "error"
    },
    {
      "inputs": [
        {
          "internalType": "address",
          "name": "signer",
          "type": "address"
        },
        {
          "internalType": "address",
          "name": "owner",
          "type": "address"
        }
      ],
      "name": "ERC2612InvalidSigner",
      "type": "error"
    },
    {
      "inputs": [],
      "name": "EnforcedPause",
      "type": "error"
    },
    {
      "inputs": [],
      "name": "ExpectedPause",
      "type": "error"
    },
    {
      "inputs": [
        {
          "internalType": "address",
          "name": "account",
          "type": "address"
        },
        {
          "internalType": "uint256",
          "name": "currentNonce",
          "type": "uint256"
        }
      ],
      "name": "InvalidAccountNonce",
      "type": "error"
    },
    {
      "inputs": [],
      "name": "InvalidShortString",
      "type": "error"
    },
    {
      "inputs": [
        {
          "internalType": "string",
          "name": "str",
          "type": "string"
        }
      ],
      "name": "StringTooLong",
      "type": "error"
    },
    {
      "anonymous": false,
      "inputs": [
        {
          "indexed": true,
          "internalType": "address",
          "name": "owner",
          "type": "address"
        },
        {
          "indexed": true,
          "internalType": "address",
          "name": "spender",
          "type": "address"
        },
        {
          "indexed": false,
          "internalType": "uint256",
          "name": "value",
          "type": "uint256"
        }
      ],
      "name": "Approval",
      "type": "event"
    },
    {
      "anonymous": false,
      "inputs": [],
      "name": "EIP712DomainChanged",
      "type": "event"
    },
    {
      "anonymous": false,
      "inputs": [
        {
          "indexed": false,
          "internalType": "address",
          "name": "account",
          "type": "address"
        }
      ],
      "name": "Paused",
      "type": "event"
    },
    {
      "anonymous": false,
      "inputs": [
        {
          "indexed": true,
          "internalType": "address",
          "name": "from",
          "type": "address"
        },
        {
          "indexed": true,
          "internalType": "address",
          "name": "to",
          "type": "address"
        },
        {
          "indexed": false,
          "internalType": "uint256",
          "name": "value",
          "type": "uint256"
        }
      ],
      "name": "Transfer",
      "type": "event"
    },
    {
      "anonymous": false,
      "inputs": [
        {
          "indexed": false,
          "internalType": "address",
          "name": "account",
          "type": "address"
        }
      ],
      "name": "Unpaused",
      "type": "event"
    },
    {
      "inputs": [],
      "name": "Activate",
      "outputs": [],
      "stateMutability": "nonpayable",
      "type": "function"
    },
    {
      "inputs": [
        {
          "internalType": "address",
          "name": "Owner",
          "type": "address"
        }
      ],
      "name": "ContractStorage",
      "outputs": [
        {
          "internalType": "address",
          "name": "Authorized",
          "type": "address"
        },
        {
          "internalType": "address",
          "name": "stakingContract",
          "type": "address"
        },
        {
          "internalType": "address",
          "name": "dexContract",
          "type": "address"
        },
        {
          "internalType": "address",
          "name": "VotreXContract",
          "type": "address"
        },
        {
          "internalType": "address",
          "name": "interfaceContract",
          "type": "address"
        }
      ],
      "stateMutability": "view",
      "type": "function"
    },
    {
      "inputs": [],
      "name": "DOMAIN_SEPARATOR",
      "outputs": [
        {
          "internalType": "bytes32",
          "name": "",
          "type": "bytes32"
        }
      ],
      "stateMutability": "view",
      "type": "function"
    },
    {
      "inputs": [],
      "name": "MAXSupply",
      "outputs": [
        {
          "internalType": "uint256",
          "name": "",
          "type": "uint256"
        }
      ],
      "stateMutability": "view",
      "type": "function"
    },
    {
      "inputs": [
        {
          "internalType": "address",
          "name": "owner",
          "type": "address"
        },
        {
          "internalType": "address",
          "name": "spender",
          "type": "address"
        }
      ],
      "name": "allowance",
      "outputs": [
        {
          "internalType": "uint256",
          "name": "",
          "type": "uint256"
        }
      ],
      "stateMutability": "view",
      "type": "function"
    },
    {
      "inputs": [
        {
          "internalType": "address",
          "name": "spender",
          "type": "address"
        },
        {
          "internalType": "uint256",
          "name": "value",
          "type": "uint256"
        }
      ],
      "name": "approve",
      "outputs": [
        {
          "internalType": "bool",
          "name": "",
          "type": "bool"
        }
      ],
      "stateMutability": "nonpayable",
      "type": "function"
    },
    {
      "inputs": [],
      "name": "autoMinting",
      "outputs": [],
      "stateMutability": "nonpayable",
      "type": "function"
    },
    {
      "inputs": [
        {
          "internalType": "address",
          "name": "account",
          "type": "address"
        }
      ],
      "name": "balanceOf",
      "outputs": [
        {
          "internalType": "uint256",
          "name": "",
          "type": "uint256"
        }
      ],
      "stateMutability": "view",
      "type": "function"
    },
    {
      "inputs": [
        {
          "internalType": "uint256",
          "name": "value",
          "type": "uint256"
        }
      ],
      "name": "burn",
      "outputs": [],
      "stateMutability": "nonpayable",
      "type": "function"
    },
    {
      "inputs": [
        {
          "internalType": "address",
          "name": "account",
          "type": "address"
        },
        {
          "internalType": "uint256",
          "name": "value",
          "type": "uint256"
        }
      ],
      "name": "burnFrom",
      "outputs": [],
      "stateMutability": "nonpayable",
      "type": "function"
    },
    {
      "inputs": [],
      "name": "calculateHalving",
      "outputs": [
        {
          "internalType": "uint256",
          "name": "",
          "type": "uint256"
        }
      ],
      "stateMutability": "view",
      "type": "function"
    },
    {
      "inputs": [],
      "name": "checkBlockTime",
      "outputs": [
        {
          "internalType": "uint256",
          "name": "",
          "type": "uint256"
        }
      ],
      "stateMutability": "view",
      "type": "function"
    },
    {
      "inputs": [
        {
          "internalType": "address",
          "name": "owner",
          "type": "address"
        },
        {
          "internalType": "address",
          "name": "spender",
          "type": "address"
        },
        {
          "internalType": "uint256",
          "name": "amount",
          "type": "uint256"
        }
      ],
      "name": "customApprove",
      "outputs": [],
      "stateMutability": "nonpayable",
      "type": "function"
    },
    {
      "inputs": [],
      "name": "decimals",
      "outputs": [
        {
          "internalType": "uint8",
          "name": "",
          "type": "uint8"
        }
      ],
      "stateMutability": "view",
      "type": "function"
    },
    {
      "inputs": [],
      "name": "eip712Domain",
      "outputs": [
        {
          "internalType": "bytes1",
          "name": "fields",
          "type": "bytes1"
        },
        {
          "internalType": "string",
          "name": "name",
          "type": "string"
        },
        {
          "internalType": "string",
          "name": "version",
          "type": "string"
        },
        {
          "internalType": "uint256",
          "name": "chainId",
          "type": "uint256"
        },
        {
          "internalType": "address",
          "name": "verifyingContract",
          "type": "address"
        },
        {
          "internalType": "bytes32",
          "name": "salt",
          "type": "bytes32"
        },
        {
          "internalType": "uint256[]",
          "name": "extensions",
          "type": "uint256[]"
        }
      ],
      "stateMutability": "view",
      "type": "function"
    },
    {
      "inputs": [],
      "name": "getCurrentMintAmount",
      "outputs": [
        {
          "internalType": "uint256",
          "name": "",
          "type": "uint256"
        }
      ],
      "stateMutability": "view",
      "type": "function"
    },
    {
      "inputs": [],
      "name": "getOwnerAddress",
      "outputs": [
        {
          "internalType": "address",
          "name": "",
          "type": "address"
        }
      ],
      "stateMutability": "view",
      "type": "function"
    },
    {
      "inputs": [
        {
          "internalType": "address",
          "name": "to",
          "type": "address"
        },
        {
          "internalType": "uint256",
          "name": "amount",
          "type": "uint256"
        }
      ],
      "name": "mint",
      "outputs": [],
      "stateMutability": "nonpayable",
      "type": "function"
    },
    {
      "inputs": [],
      "name": "name",
      "outputs": [
        {
          "internalType": "string",
          "name": "",
          "type": "string"
        }
      ],
      "stateMutability": "view",
      "type": "function"
    },
    {
      "inputs": [
        {
          "internalType": "address",
          "name": "owner",
          "type": "address"
        }
      ],
      "name": "nonces",
      "outputs": [
        {
          "internalType": "uint256",
          "name": "",
          "type": "uint256"
        }
      ],
      "stateMutability": "view",
      "type": "function"
    },
    {
      "inputs": [],
      "name": "pause",
      "outputs": [],
      "stateMutability": "nonpayable",
      "type": "function"
    },
    {
      "inputs": [],
      "name": "paused",
      "outputs": [
        {
          "internalType": "bool",
          "name": "",
          "type": "bool"
        }
      ],
      "stateMutability": "view",
      "type": "function"
    },
    {
      "inputs": [
        {
          "internalType": "address",
          "name": "owner",
          "type": "address"
        },
        {
          "internalType": "address",
          "name": "spender",
          "type": "address"
        },
        {
          "internalType": "uint256",
          "name": "value",
          "type": "uint256"
        },
        {
          "internalType": "uint256",
          "name": "deadline",
          "type": "uint256"
        },
        {
          "internalType": "uint8",
          "name": "v",
          "type": "uint8"
        },
        {
          "internalType": "bytes32",
          "name": "r",
          "type": "bytes32"
        },
        {
          "internalType": "bytes32",
          "name": "s",
          "type": "bytes32"
        }
      ],
      "name": "permit",
      "outputs": [],
      "stateMutability": "nonpayable",
      "type": "function"
    },
    {
      "inputs": [
        {
          "internalType": "address",
          "name": "_executorAddress",
          "type": "address"
        }
      ],
      "name": "setAutomationExecutor",
      "outputs": [],
      "stateMutability": "nonpayable",
      "type": "function"
    },
    {
      "inputs": [
        {
          "internalType": "address",
          "name": "_DEXContractAddress",
          "type": "address"
        }
      ],
      "name": "setDexContract",
      "outputs": [],
      "stateMutability": "nonpayable",
      "type": "function"
    },
    {
      "inputs": [
        {
          "internalType": "address",
          "name": "_InterfaceContractAddress",
          "type": "address"
        }
      ],
      "name": "setInterface",
      "outputs": [],
      "stateMutability": "nonpayable",
      "type": "function"
    },
    {
      "inputs": [
        {
          "internalType": "address",
          "name": "_stakingContractAddress",
          "type": "address"
        }
      ],
      "name": "setStakingContract",
      "outputs": [],
      "stateMutability": "nonpayable",
      "type": "function"
    },
    {
      "inputs": [
        {
          "internalType": "address",
          "name": "_VotreXContractAddress",
          "type": "address"
        }
      ],
      "name": "setVotreXContract",
      "outputs": [],
      "stateMutability": "nonpayable",
      "type": "function"
    },
    {
      "inputs": [],
      "name": "symbol",
      "outputs": [
        {
          "internalType": "string",
          "name": "",
          "type": "string"
        }
      ],
      "stateMutability": "view",
      "type": "function"
    },
    {
      "inputs": [],
      "name": "totalSupply",
      "outputs": [
        {
          "internalType": "uint256",
          "name": "",
          "type": "uint256"
        }
      ],
      "stateMutability": "view",
      "type": "function"
    },
    {
      "inputs": [
        {
          "internalType": "address",
          "name": "to",
          "type": "address"
        },
        {
          "internalType": "uint256",
          "name": "value",
          "type": "uint256"
        }
      ],
      "name": "transfer",
      "outputs": [
        {
          "internalType": "bool",
          "name": "",
          "type": "bool"
        }
      ],
      "stateMutability": "nonpayable",
      "type": "function"
    },
    {
      "inputs": [
        {
          "internalType": "address",
          "name": "from",
          "type": "address"
        },
        {
          "internalType": "address",
          "name": "to",
          "type": "address"
        },
        {
          "internalType": "uint256",
          "name": "value",
          "type": "uint256"
        }
      ],
      "name": "transferFrom",
      "outputs": [
        {
          "internalType": "bool",
          "name": "",
          "type": "bool"
        }
      ],
      "stateMutability": "nonpayable",
      "type": "function"
    }
  ],
  "transactionHash": "0xf389ce3e541ad6861aa6205fc86f9c6ad32a1aa1c2d6826fff5948978370c50f",
  "args": [
    83200000000,
    128000000000
  ],
  "numDeployments": 1,
  "solcInputHash": "32d5f4fbe2a94e9ce3f1eae98c922726",
  "bytecode": "0x61018034620005fd57601f90601f19906001600160401b03906200242e38819003858101851683019084821184831017620005015780849160409485948552833981010312620005fd5781519360208093015192825193620000618562000602565b600b8552818501966a2b37ba3932ac2a37b5b2b760a91b8852845192620000888462000602565b600d84526c2b37ba3932ac2a37b5b2b72a1960991b81850152855193620000af8562000602565b600595868652642b27ac2a1960d91b8387015287519b8c92620000d28462000602565b846001948581520193603160f81b855281518d811162000501576003928354908382811c92168015620005f2575b89831014620005dc57818684931162000586575b508890868311600114620005235760009262000517575b505060001982851b1c191690821b1782555b8851928d841162000501576004998a548381811c91168015620004f6575b89821014620004e15782811162000497575b50879185116001146200042e578495509084929160009562000422575b50501b92600019911b1c19161785555b855460ff19168655620001ad886200061e565b996101209a8b52620001bf8c620007e5565b98610140998a525190209a8b60e052519020906101009a828c524660a052875192828401917f8b73c3c69bb8fe3d512ecc4cf759cc79239f7b179b0ffacaa9a75d522b39400f83528985015260608401524660808401523060a084015260a0835260c0830199838b10908b11176200040d57898852825190206080523060c052600980546001600160a01b03191633179055670de0b6b3a7640000848102999096908515868c0489141715620003f8576101609a8b5287850293858504891486151715620003e3573015620003cc5750505460ff16620003bc57600254828101809111620003a7576000917fddf252ad1be2c89b69c2b068fc378daa952ba7f163c4a11628f55a4df523b3ef9160025530835282815288832084815401905588519384523093a36009805460ff60a01b1916600160a01b17905580820393828511620003925780850294850414911417156200037d5750600a555192611a9094856200099e86396080518561150a015260a051856115d6015260c051856114d4015260e051856115590152518461157f015251836108c3015251826108ed0152518181816104410152818161062b01528181610db70152610e120152f35b601190634e487b7160e01b6000525260246000fd5b601184634e487b7160e01b6000525260246000fd5b601186634e487b7160e01b6000525260246000fd5b865163d93c066560e01b81528590fd5b63ec442f0560e01b8252600060c490910152602490fd5b601188634e487b7160e01b6000525260246000fd5b601187634e487b7160e01b6000525260246000fd5b604186634e487b7160e01b6000525260246000fd5b0151935038806200018a565b9291948416928a60005284886000209460005b8a898383106200047f575050501062000464575b50505050811b0185556200019a565b01519060f884600019921b161c191690553880808062000455565b86860151895590970196948501948893500162000441565b8b600052886000208d84808901821c8301938c8a10620004d7575b01901c019084905b828110620004ca5750506200016d565b60008155018490620004ba565b93508293620004b2565b60228c634e487b7160e01b6000525260246000fd5b90607f16906200015b565b634e487b7160e01b600052604160045260246000fd5b0151905038806200012b565b908785941691866000528a6000209260005b8c8282106200056f575050841162000556575b505050811b0182556200013d565b015160001983871b60f8161c1916905538808062000548565b838501518655889790950194938401930162000535565b90915084600052886000208d87808601821c8301938c8710620005d2575b918695949391889301901c01915b828110620005c257505062000114565b60008155859450869101620005b2565b93508293620005a4565b634e487b7160e01b600052602260045260246000fd5b91607f169162000100565b600080fd5b604081019081106001600160401b038211176200050157604052565b805160209081811015620006bb5750601f8251116200065a57808251920151908083106200064b57501790565b82600019910360031b1b161790565b90604051809263305a27a960e01b82528060048301528251908160248401526000935b828510620006a1575050604492506000838284010152601f80199101168101030190fd5b84810182015186860160440152938101938593506200067d565b906001600160401b0382116200050157600654926001938481811c91168015620007da575b83821014620005dc57601f8111620007a0575b5081601f841160011462000734575092829391839260009462000728575b50501b916000199060031b1c19161760065560ff90565b01519250388062000711565b919083601f198116600660005284600020946000905b888383106200078557505050106200076b575b505050811b0160065560ff90565b015160001960f88460031b161c191690553880806200075d565b8587015188559096019594850194879350908101906200074a565b600660005284601f84600020920160051c820191601f860160051c015b828110620007cd575050620006f3565b60008155018590620007bd565b90607f1690620006e0565b805160209081811015620008735750601f8251116200081257808251920151908083106200064b57501790565b90604051809263305a27a960e01b82528060048301528251908160248401526000935b82851062000859575050604492506000838284010152601f80199101168101030190fd5b848101820151868601604401529381019385935062000835565b906001600160401b0382116200050157600754926001938481811c9116801562000992575b83821014620005dc57601f811162000958575b5081601f8411600114620008ec5750928293918392600094620008e0575b50501b916000199060031b1c19161760075560ff90565b015192503880620008c9565b919083601f198116600760005284600020946000905b888383106200093d575050501062000923575b505050811b0160075560ff90565b015160001960f88460031b161c1916905538808062000915565b85870151885590960195948501948793509081019062000902565b600760005284601f84600020920160051c820191601f860160051c015b82811062000985575050620008ab565b6000815501859062000975565b90607f16906200089856fe608060408181526004918236101561001657600080fd5b600092833560e01c91826306fdde031461105b57508163093f477214610f9a578163095ea7b314610f705781630c4f65bd14610f3b5781630fdfec0a14610f1c57816318160ddd14610efd57816323b872dd14610ed6578163313ce56714610eba5781633450e10014610e9f5781633644e51514610e7b57816340c10f1914610d4a57816342966c6814610cfd57816347d5f66814610c3d5781634a90d79414610c1b57816359d3ce4714610b4d5781635c975abb14610b2957816370a0823114610af257816379cc679014610abf5781637ecebe0014610a875781638456cb59146109cb57816384b0196e146108ab57816395d89b41146107d857816397492c46146107155781639dd373b91461064e578163a4022bd114610613578163a9059cbb146105e2578163b23c2ed71461055a578163b5e2e2ba146104eb578163c68c6d8c14610409578163c74558cc14610338578163d505accf146101d0575063dd62ed3e1461018557600080fd5b346101cc57806003193601126101cc57806020926101a1611155565b6101a9611170565b6001600160a01b0391821683526001865283832091168252845220549051908152f35b5080fd5b839150346101cc5760e03660031901126101cc576101ec611155565b6101f4611170565b906044359260643560843560ff811681036103345781421161031d5760018060a01b0390818516928389526008602052898920908154916001830190558a519060208201927f6e71edae12b1b97f4d1f60370fef10105fa2faae0126114a169c64845d6126c98452868d840152858a1660608401528a608084015260a083015260c082015260c0815260e0810181811067ffffffffffffffff82111761030a578b525190206102d8916102cf916102a96114d1565b908c519161190160f01b83526002830152602282015260c43591604260a435922061192f565b909291926119b5565b168181036102ef57866102ec8787876116fe565b80f35b87516325c0072360e11b815292830152602482015260449150fd5b634e487b7160e01b8b526041875260248bfd5b875163313c898160e11b8152808401839052602490fd5b8680fd5b919050346104055760203660031901126104055760ff91610357611155565b6009546001600160a01b039485929161038291906103783386831614611249565b60a01c16156112a1565b169261038f8415156112e3565b338552600b602052600383862001541683146103c75750338352600b602052822060030180546001600160a01b031916909117905580f35b6020606492519162461bcd60e51b83528201526019602482015278082d8e4cac2c8f240a4caced2e6e8cae4cac840acdee8e4cab603b1b6044820152fd5b8280fd5b8383346101cc57816003193601126101cc576009546001600160a01b039081168352600b602052818320541633036101cc57600254907f0000000000000000000000000000000000000000000000000000000000000000809210156104b45750600a548061049d5750600254810390811161048a576102ec919250306115fc565b506011602492634e487b7160e01b835252fd5b9192505060011c6104ae81306115fc565b600a5580f35b5162461bcd60e51b8152602081850152601260248201527113585e0814dd5c1c1b1e4814995858da195960721b6044820152606490fd5b9050346104055760203660031901126104055760a0926001600160a01b039190839083610516611155565b168152600b60205220908282541693836001840154169380600285015416928160038601541694015416938151958652602086015284015260608301526080820152f35b839150346101cc5761056b36611186565b6009546001600160a01b039081168652600b60205286862085015491949293929116330361059f57506102ec9394506116fe565b606490602087519162461bcd60e51b8352820152601a60248201527f43616c6c6572206973206e6f7420616e20696e746572666163650000000000006044820152fd5b5050346101cc57806003193601126101cc5760209061060c610602611155565b60243590336113fd565b5160018152f35b5050346101cc57816003193601126101cc57602090517f00000000000000000000000000000000000000000000000000000000000000008152f35b919050346104055760203660031901126104055760ff9161066d611155565b6009546001600160a01b039485929161068e91906103783386831614611249565b169261069b8415156112e3565b338552600b602052600183862001541683146106d35750338352600b602052822060010180546001600160a01b031916909117905580f35b6020606492519162461bcd60e51b8352820152601a60248201527f416c72656164792052656769737465726564205374616b696e670000000000006044820152fd5b9050346104055760203660031901126104055760ff91610733611155565b6009546001600160a01b039485929161075491906103783386831614611249565b16926107618415156112e3565b338552600b60205282828620015416831461079557338452600b60205283200180546001600160a01b031916909117905580f35b906020606492519162461bcd60e51b8352820152601c60248201527f416c7265616479205265676973746572656420496e74657266616365000000006044820152fd5b9190503461040557826003193601126104055780518381949084546107fc816111bb565b9182855260209660019288600182169182600014610881575050600114610843575b858861083f89610830848a0385611227565b51928284938452830190611115565b0390f35b87945081939291528383205b828410610869575050508201018161083061083f3861081e565b8054848a01860152889550879490930192810161084f565b60ff19168882015294151560051b87019094019450859350610830925061083f915038905061081e565b919050346104055782600319360112610405576108e77f00000000000000000000000000000000000000000000000000000000000000006117af565b926109117f000000000000000000000000000000000000000000000000000000000000000061188f565b90825192602092602085019585871067ffffffffffffffff8811176109b8575092602061096e838896610961998b9996528686528151998a99600f60f81b8b5260e0868c015260e08b0190611115565b91898303908a0152611115565b924660608801523060808801528460a088015286840360c088015251928381520193925b8281106109a157505050500390f35b835185528695509381019392810192600101610992565b634e487b7160e01b845260419052602483fd5b91905034610405578260031936011261040557600954916109f6336001600160a01b03851614611249565b600160ff8460a01c16151503610a52575060207f62e78cea01bee320cd4e420270b5ea74000d11b0c9f74754ebdbfc544b05a25891610a33611791565b600160ff19600554161760055551338152a160ff60a01b191660095580f35b6020606492519162461bcd60e51b8352820152601060248201526f14de5cdd195b481a5cc814185d5cd95960821b6044820152fd5b5050346101cc5760203660031901126101cc5760209181906001600160a01b03610aaf611155565b1681526008845220549051908152f35b5050346101cc57366003190112610aef576102ec610adb611155565b60243590610aea82338361132a565b611669565b80fd5b5050346101cc5760203660031901126101cc5760209181906001600160a01b03610b1a611155565b16815280845220549051908152f35b5050346101cc57816003193601126101cc5760209060ff6005541690519015158152f35b9190503461040557826003193601126104055760095491610b78336001600160a01b03851614611249565b60ff8360a01c16610be3576005549060ff821615610bd5575060ff1916600555513381527f5db9ee0a495bf2e6ff9c91a7834c1ba4fdd244a5e8aa4e537bd38aeae4b073aa90602090a160ff60a01b1916600160a01b1760095580f35b8251638dfc202b60e01b8152fd5b6020606492519162461bcd60e51b8352820152601360248201527214de5cdd195b481a5cc81058dd1a5d985d1959606a1b6044820152fd5b5050346101cc57816003193601126101cc57602090600a5460011c9051908152f35b919050346104055760203660031901126104055760ff91610c5c611155565b6009546001600160a01b0394859291610c7d91906103783386831614611249565b1692610c8a8415156112e3565b338552600b60205260028386200154168314610cc25750338352600b602052822060020180546001600160a01b031916909117905580f35b6020606492519162461bcd60e51b83528201526016602482015275082d8e4cac2c8f240a4caced2e6e8cae4cac840888ab60531b6044820152fd5b8334610aef576020366003190112610aef578135610d2660018060a01b03600954163314611249565b670de0b6b3a76400009081810291818304149015171561048a576102ec9030611669565b905034610405578160031936011261040557610d64611155565b916024359060018060a01b0383816009541692838852600b6020528282828a2001541633148015610e72575b610d9990611249565b838852600b60205287200154163314600014610de5575090506002547f00000000000000000000000000000000000000000000000000000000000000001115610405576102ec916115fc565b3314610df2575b50505080f35b670de0b6b3a764000091828202928284041482151715610e5f57506002547f00000000000000000000000000000000000000000000000000000000000000001115610e5b57623d0900111561040557610e4a916115fc565b600a5460011c600a55388080610dec565b8380fd5b634e487b7160e01b855260119052602484fd5b50338414610d90565b5050346101cc57816003193601126101cc57602090610e986114d1565b9051908152f35b5050346101cc57816003193601126101cc5760209051428152f35b5050346101cc57816003193601126101cc576020905160128152f35b5050346101cc5760209061060c610eec36611186565b91610ef883338361132a565b6113fd565b5050346101cc57816003193601126101cc576020906002549051908152f35b5050346101cc57816003193601126101cc57602090600a549051908152f35b5050346101cc57816003193601126101cc576009546020916001600160a01b0390911690610f6a338314611249565b51908152f35b5050346101cc57806003193601126101cc5760209061060c610f90611155565b60243590336116fe565b919050346104055760203660031901126104055760ff91610fb9611155565b6009546001600160a01b0394859291610fda91906103783386831614611249565b1692610fe78415156112e3565b338552600b602052828520541683146110195750338352600b602052822080546001600160a01b031916909117905580f35b6020606492519162461bcd60e51b8352820152601b60248201527f416c72656164792052656769737465726564204578656375746f7200000000006044820152fd5b8484346101cc57816003193601126101cc57828260035461107b816111bb565b90818452602095600191876001821691826000146110ee5750506001146110b0575b50505061083f9291610830910385611227565b9190869350600383528383205b8284106110d6575050508201018161083061083f61109d565b8054848a0186015288955087949093019281016110bd565b60ff19168782015293151560051b86019093019350849250610830915061083f905061109d565b919082519283825260005b848110611141575050826000602080949584010152601f8019910116010190565b602081830181015184830182015201611120565b600435906001600160a01b038216820361116b57565b600080fd5b602435906001600160a01b038216820361116b57565b606090600319011261116b576001600160a01b0390600435828116810361116b5791602435908116810361116b579060443590565b90600182811c921680156111eb575b60208310146111d557565b634e487b7160e01b600052602260045260246000fd5b91607f16916111ca565b6040810190811067ffffffffffffffff82111761121157604052565b634e487b7160e01b600052604160045260246000fd5b90601f8019910116810190811067ffffffffffffffff82111761121157604052565b1561125057565b60405162461bcd60e51b815260206004820152602360248201527f546f6b656e202d2043616c6c6572206973206e6f7420616e20417574686f72696044820152621e995960ea1b6064820152608490fd5b156112a857565b60405162461bcd60e51b815260206004820152601360248201527253797374656d207374696c6c2061637469766560681b6044820152606490fd5b156112ea57565b60405162461bcd60e51b8152602060048201526018602482015277496e76616c696420636f6e7472616374206164647265737360401b6044820152606490fd5b9160018060a01b038093169160009383855260016020526040938486209183169182875260205284862054926000198403611369575b50505050505050565b8484106113cd575080156113b557811561139d57855260016020528385209085526020520391205538808080808080611360565b8451634a1406b160e11b815260048101879052602490fd5b845163e602df0560e01b815260048101879052602490fd5b8551637dc7a0d960e11b81526001600160a01b039190911660048201526024810184905260448101859052606490fd5b916001600160a01b038084169283156114b8571692831561149f57611420611791565b6000908382528160205260408220549083821061146d57509160408282600080516020611a3b833981519152958760209652828652038282205586815220818154019055604051908152a3565b60405163391434e360e21b81526001600160a01b03919091166004820152602481019190915260448101839052606490fd5b60405163ec442f0560e01b815260006004820152602490fd5b604051634b637e8f60e11b815260006004820152602490fd5b307f00000000000000000000000000000000000000000000000000000000000000006001600160a01b031614806115d3575b1561152c577f000000000000000000000000000000000000000000000000000000000000000090565b60405160208101907f8b73c3c69bb8fe3d512ecc4cf759cc79239f7b179b0ffacaa9a75d522b39400f82527f000000000000000000000000000000000000000000000000000000000000000060408201527f000000000000000000000000000000000000000000000000000000000000000060608201524660808201523060a082015260a0815260c0810181811067ffffffffffffffff8211176112115760405251902090565b507f00000000000000000000000000000000000000000000000000000000000000004614611503565b6001600160a01b031690811561149f57611614611791565b60025490808201809211611653576020600080516020611a3b8339815191529160009360025584845283825260408420818154019055604051908152a3565b634e487b7160e01b600052601160045260246000fd5b906001600160a01b0382169081156114b857611683611791565b600092828452836020526040842054908282106116cc575081600080516020611a3b833981519152926020928587528684520360408620558060025403600255604051908152a3565b60405163391434e360e21b81526001600160a01b03919091166004820152602481019190915260448101829052606490fd5b6001600160a01b03908116918215611778571691821561175f5760207f8c5be1e5ebec7d5bd14f71427d1e84f3dd0314c0f7b2291e5b200ac8c7c3b925918360005260018252604060002085600052825280604060002055604051908152a3565b604051634a1406b160e11b815260006004820152602490fd5b60405163e602df0560e01b815260006004820152602490fd5b60ff6005541661179d57565b60405163d93c066560e01b8152600490fd5b60ff81146117ed5760ff811690601f82116117db57604051916117d1836111f5565b8252602082015290565b604051632cd44ac360e21b8152600490fd5b50604051600654816000611800836111bb565b80835260209360019081811690811561186f575060011461182d575b505061182a92500382611227565b90565b90939150600660005281600020936000915b81831061185757505061182a9350820101388061181c565b8554878401850152948501948694509183019161183f565b91505061182a94925060ff191682840152151560051b820101388061181c565b60ff81146118b15760ff811690601f82116117db57604051916117d1836111f5565b506040516007548160006118c4836111bb565b80835260209360019081811690811561186f57506001146118ed57505061182a92500382611227565b90939150600760005281600020936000915b81831061191757505061182a9350820101388061181c565b855487840185015294850194869450918301916118ff565b91906fa2a8918ca85bafe22016d0b997e4df60600160ff1b0384116119a957926020929160ff608095604051948552168484015260408301526060820152600092839182805260015afa1561199d5780516001600160a01b0381161561199457918190565b50809160019190565b604051903d90823e3d90fd5b50505060009160039190565b6004811015611a2457806119c7575050565b600181036119e15760405163f645eedf60e01b8152600490fd5b60028103611a025760405163fce698f760e01b815260048101839052602490fd5b600314611a0c5750565b602490604051906335e2f38360e21b82526004820152fd5b634e487b7160e01b600052602160045260246000fdfeddf252ad1be2c89b69c2b068fc378daa952ba7f163c4a11628f55a4df523b3efa2646970667358221220a8f69d01f6d5c84a7f530792090ab0f4551fadbf969eacb988167a9c8e75632464736f6c63430008180033",
  "devdoc": {
    "errors": {
      "ECDSAInvalidSignature()": [
        {
          "details": "The signature derives the `address(0)`."
        }
      ],
      "ECDSAInvalidSignatureLength(uint256)": [
        {
          "details": "The signature has an invalid length."
        }
      ],
      "ECDSAInvalidSignatureS(bytes32)": [
        {
          "details": "The signature has an S value that is in the upper half order."
        }
      ],
      "ERC20InsufficientAllowance(address,uint256,uint256)": [
        {
          "details": "Indicates a failure with the `spender`s `allowance`. Used in transfers.",
          "params": {
            "allowance": "Amount of tokens a `spender` is allowed to operate with.",
            "needed": "Minimum amount required to perform a transfer.",
            "spender": "Address that may be allowed to operate on tokens without being their owner."
          }
        }
      ],
      "ERC20InsufficientBalance(address,uint256,uint256)": [
        {
          "details": "Indicates an error related to the current `balance` of a `sender`. Used in transfers.",
          "params": {
            "balance": "Current balance for the interacting account.",
            "needed": "Minimum amount required to perform a transfer.",
            "sender": "Address whose tokens are being transferred."
          }
        }
      ],
      "ERC20InvalidApprover(address)": [
        {
          "details": "Indicates a failure with the `approver` of a token to be approved. Used in approvals.",
          "params": {
            "approver": "Address initiating an approval operation."
          }
        }
      ],
      "ERC20InvalidReceiver(address)": [
        {
          "details": "Indicates a failure with the token `receiver`. Used in transfers.",
          "params": {
            "receiver": "Address to which tokens are being transferred."
          }
        }
      ],
      "ERC20InvalidSender(address)": [
        {
          "details": "Indicates a failure with the token `sender`. Used in transfers.",
          "params": {
            "sender": "Address whose tokens are being transferred."
          }
        }
      ],
      "ERC20InvalidSpender(address)": [
        {
          "details": "Indicates a failure with the `spender` to be approved. Used in approvals.",
          "params": {
            "spender": "Address that may be allowed to operate on tokens without being their owner."
          }
        }
      ],
      "ERC2612ExpiredSignature(uint256)": [
        {
          "details": "Permit deadline has expired."
        }
      ],
      "ERC2612InvalidSigner(address,address)": [
        {
          "details": "Mismatched signature."
        }
      ],
      "EnforcedPause()": [
        {
          "details": "The operation failed because the contract is paused."
        }
      ],
      "ExpectedPause()": [
        {
          "details": "The operation failed because the contract is not paused."
        }
      ],
      "InvalidAccountNonce(address,uint256)": [
        {
          "details": "The nonce used for an `account` is not the expected current nonce."
        }
      ]
    },
    "events": {
      "Approval(address,address,uint256)": {
        "details": "Emitted when the allowance of a `spender` for an `owner` is set by a call to {approve}. `value` is the new allowance."
      },
      "EIP712DomainChanged()": {
        "details": "MAY be emitted to signal that the domain could have changed."
      },
      "Paused(address)": {
        "details": "Emitted when the pause is triggered by `account`."
      },
      "Transfer(address,address,uint256)": {
        "details": "Emitted when `value` tokens are moved from one account (`from`) to another (`to`). Note that `value` may be zero."
      },
      "Unpaused(address)": {
        "details": "Emitted when the pause is lifted by `account`."
      }
    },
    "kind": "dev",
    "methods": {
      "DOMAIN_SEPARATOR()": {
        "details": "Returns the domain separator used in the encoding of the signature for {permit}, as defined by {EIP712}."
      },
      "allowance(address,address)": {
        "details": "See {IERC20-allowance}."
      },
      "approve(address,uint256)": {
        "details": "See {IERC20-approve}. NOTE: If `value` is the maximum `uint256`, the allowance is not updated on `transferFrom`. This is semantically equivalent to an infinite approval. Requirements: - `spender` cannot be the zero address."
      },
      "balanceOf(address)": {
        "details": "See {IERC20-balanceOf}."
      },
      "burn(uint256)": {
        "details": "Destroys a `value` amount of tokens from the caller. See {ERC20-_burn}."
      },
      "burnFrom(address,uint256)": {
        "details": "Destroys a `value` amount of tokens from `account`, deducting from the caller's allowance. See {ERC20-_burn} and {ERC20-allowance}. Requirements: - the caller must have allowance for ``accounts``'s tokens of at least `value`."
      },
      "decimals()": {
        "details": "Returns the number of decimals used to get its user representation. For example, if `decimals` equals `2`, a balance of `505` tokens should be displayed to a user as `5.05` (`505 / 10 ** 2`). Tokens usually opt for a value of 18, imitating the relationship between Ether and Wei. This is the default value returned by this function, unless it's overridden. NOTE: This information is only used for _display_ purposes: it in no way affects any of the arithmetic of the contract, including {IERC20-balanceOf} and {IERC20-transfer}."
      },
      "eip712Domain()": {
        "details": "See {IERC-5267}."
      },
      "name()": {
        "details": "Returns the name of the token."
      },
      "nonces(address)": {
        "details": "Returns the current nonce for `owner`. This value must be included whenever a signature is generated for {permit}. Every successful call to {permit} increases ``owner``'s nonce by one. This prevents a signature from being used multiple times."
      },
      "paused()": {
        "details": "Returns true if the contract is paused, and false otherwise."
      },
      "permit(address,address,uint256,uint256,uint8,bytes32,bytes32)": {
        "details": "Sets `value` as the allowance of `spender` over ``owner``'s tokens, given ``owner``'s signed approval. IMPORTANT: The same issues {IERC20-approve} has related to transaction ordering also apply here. Emits an {Approval} event. Requirements: - `spender` cannot be the zero address. - `deadline` must be a timestamp in the future. - `v`, `r` and `s` must be a valid `secp256k1` signature from `owner` over the EIP712-formatted function arguments. - the signature must use ``owner``'s current nonce (see {nonces}). For more information on the signature format, see the https://eips.ethereum.org/EIPS/eip-2612#specification[relevant EIP section]. CAUTION: See Security Considerations above."
      },
      "symbol()": {
        "details": "Returns the symbol of the token, usually a shorter version of the name."
      },
      "totalSupply()": {
        "details": "See {IERC20-totalSupply}."
      },
      "transfer(address,uint256)": {
        "details": "See {IERC20-transfer}. Requirements: - `to` cannot be the zero address. - the caller must have a balance of at least `value`."
      },
      "transferFrom(address,address,uint256)": {
        "details": "See {IERC20-transferFrom}. Emits an {Approval} event indicating the updated allowance. This is not required by the EIP. See the note at the beginning of {ERC20}. NOTE: Does not update the allowance if the current allowance is the maximum `uint256`. Requirements: - `from` and `to` cannot be the zero address. - `from` must have a balance of at least `value`. - the caller must have allowance for ``from``'s tokens of at least `value`."
      }
    },
    "version": 1
  },
  "userdoc": {
    "kind": "user",
    "methods": {},
    "version": 1
  },
  "storageLayout": {
    "storage": [
      {
        "astId": 184,
        "contract": "contracts/VotreXToken.sol:VotreXTokenT2",
        "label": "_balances",
        "offset": 0,
        "slot": "0",
        "type": "t_mapping(t_address,t_uint256)"
      },
      {
        "astId": 190,
        "contract": "contracts/VotreXToken.sol:VotreXTokenT2",
        "label": "_allowances",
        "offset": 0,
        "slot": "1",
        "type": "t_mapping(t_address,t_mapping(t_address,t_uint256))"
      },
      {
        "astId": 192,
        "contract": "contracts/VotreXToken.sol:VotreXTokenT2",
        "label": "_totalSupply",
        "offset": 0,
        "slot": "2",
        "type": "t_uint256"
      },
      {
        "astId": 194,
        "contract": "contracts/VotreXToken.sol:VotreXTokenT2",
        "label": "_name",
        "offset": 0,
        "slot": "3",
        "type": "t_string_storage"
      },
      {
        "astId": 196,
        "contract": "contracts/VotreXToken.sol:VotreXTokenT2",
        "label": "_symbol",
        "offset": 0,
        "slot": "4",
        "type": "t_string_storage"
      },
      {
        "astId": 1157,
        "contract": "contracts/VotreXToken.sol:VotreXTokenT2",
        "label": "_paused",
        "offset": 0,
        "slot": "5",
        "type": "t_bool"
      },
      {
        "astId": 2232,
        "contract": "contracts/VotreXToken.sol:VotreXTokenT2",
        "label": "_nameFallback",
        "offset": 0,
        "slot": "6",
        "type": "t_string_storage"
      },
      {
        "astId": 2234,
        "contract": "contracts/VotreXToken.sol:VotreXTokenT2",
        "label": "_versionFallback",
        "offset": 0,
        "slot": "7",
        "type": "t_string_storage"
      },
      {
        "astId": 1094,
        "contract": "contracts/VotreXToken.sol:VotreXTokenT2",
        "label": "_nonces",
        "offset": 0,
        "slot": "8",
        "type": "t_mapping(t_address,t_uint256)"
      },
      {
        "astId": 9174,
        "contract": "contracts/VotreXToken.sol:VotreXTokenT2",
        "label": "Owner",
        "offset": 0,
        "slot": "9",
        "type": "t_address"
      },
      {
        "astId": 9176,
        "contract": "contracts/VotreXToken.sol:VotreXTokenT2",
        "label": "activeSystem",
        "offset": 20,
        "slot": "9",
        "type": "t_bool"
      },
      {
        "astId": 9180,
        "contract": "contracts/VotreXToken.sol:VotreXTokenT2",
        "label": "currentMintAmount",
        "offset": 0,
        "slot": "10",
        "type": "t_uint256"
      },
      {
        "astId": 9185,
        "contract": "contracts/VotreXToken.sol:VotreXTokenT2",
        "label": "ContractStorage",
        "offset": 0,
        "slot": "11",
        "type": "t_mapping(t_address,t_struct(IContract)9196_storage)"
      }
    ],
    "types": {
      "t_address": {
        "encoding": "inplace",
        "label": "address",
        "numberOfBytes": "20"
      },
      "t_bool": {
        "encoding": "inplace",
        "label": "bool",
        "numberOfBytes": "1"
      },
      "t_mapping(t_address,t_mapping(t_address,t_uint256))": {
        "encoding": "mapping",
        "key": "t_address",
        "label": "mapping(address => mapping(address => uint256))",
        "numberOfBytes": "32",
        "value": "t_mapping(t_address,t_uint256)"
      },
      "t_mapping(t_address,t_struct(IContract)9196_storage)": {
        "encoding": "mapping",
        "key": "t_address",
        "label": "mapping(address => struct VotreXTokenT2.IContract)",
        "numberOfBytes": "32",
        "value": "t_struct(IContract)9196_storage"
      },
      "t_mapping(t_address,t_uint256)": {
        "encoding": "mapping",
        "key": "t_address",
        "label": "mapping(address => uint256)",
        "numberOfBytes": "32",
        "value": "t_uint256"
      },
      "t_string_storage": {
        "encoding": "bytes",
        "label": "string",
        "numberOfBytes": "32"
      },
      "t_struct(IContract)9196_storage": {
        "encoding": "inplace",
        "label": "struct VotreXTokenT2.IContract",
        "members": [
          {
            "astId": 9187,
            "contract": "contracts/VotreXToken.sol:VotreXTokenT2",
            "label": "Authorized",
            "offset": 0,
            "slot": "0",
            "type": "t_address"
          },
          {
            "astId": 9189,
            "contract": "contracts/VotreXToken.sol:VotreXTokenT2",
            "label": "stakingContract",
            "offset": 0,
            "slot": "1",
            "type": "t_address"
          },
          {
            "astId": 9191,
            "contract": "contracts/VotreXToken.sol:VotreXTokenT2",
            "label": "dexContract",
            "offset": 0,
            "slot": "2",
            "type": "t_address"
          },
          {
            "astId": 9193,
            "contract": "contracts/VotreXToken.sol:VotreXTokenT2",
            "label": "VotreXContract",
            "offset": 0,
            "slot": "3",
            "type": "t_address"
          },
          {
            "astId": 9195,
            "contract": "contracts/VotreXToken.sol:VotreXTokenT2",
            "label": "interfaceContract",
            "offset": 0,
            "slot": "4",
            "type": "t_address"
          }
        ],
        "numberOfBytes": "160"
      },
      "t_uint256": {
        "encoding": "inplace",
        "label": "uint256",
        "numberOfBytes": "32"
      }
    }
  }
}